
Devops.elf:     file format elf32-littlearm

Sections:
Idx Name          Size      VMA       LMA       File off  Algn
  0 .isr_vector   000001c8  08000000  08000000  00010000  2**0
                  CONTENTS, ALLOC, LOAD, READONLY, DATA
  1 .text         000010a4  080001c8  080001c8  000101c8  2**2
                  CONTENTS, ALLOC, LOAD, READONLY, CODE
  2 .rodata       00000010  0800126c  0800126c  0001126c  2**2
                  CONTENTS, ALLOC, LOAD, READONLY, DATA
  3 .ARM.extab    00000000  0800127c  0800127c  0002000c  2**0
                  CONTENTS
  4 .ARM          00000008  0800127c  0800127c  0001127c  2**2
                  CONTENTS, ALLOC, LOAD, READONLY, DATA
  5 .preinit_array 00000000  08001284  08001284  0002000c  2**0
                  CONTENTS, ALLOC, LOAD, DATA
  6 .init_array   00000004  08001284  08001284  00011284  2**2
                  CONTENTS, ALLOC, LOAD, DATA
  7 .fini_array   00000004  08001288  08001288  00011288  2**2
                  CONTENTS, ALLOC, LOAD, DATA
  8 .data         0000000c  20000000  0800128c  00020000  2**2
                  CONTENTS, ALLOC, LOAD, DATA
  9 .bss          00000020  2000000c  08001298  0002000c  2**2
                  ALLOC
 10 ._user_heap_stack 00000604  2000002c  08001298  0002002c  2**0
                  ALLOC
 11 .ARM.attributes 00000030  00000000  00000000  0002000c  2**0
                  CONTENTS, READONLY
 12 .debug_info   000038bd  00000000  00000000  0002003c  2**0
                  CONTENTS, READONLY, DEBUGGING, OCTETS
 13 .debug_abbrev 00000c81  00000000  00000000  000238f9  2**0
                  CONTENTS, READONLY, DEBUGGING, OCTETS
 14 .debug_aranges 000003a0  00000000  00000000  00024580  2**3
                  CONTENTS, READONLY, DEBUGGING, OCTETS
 15 .debug_ranges 00000328  00000000  00000000  00024920  2**3
                  CONTENTS, READONLY, DEBUGGING, OCTETS
 16 .debug_macro  0002323a  00000000  00000000  00024c48  2**0
                  CONTENTS, READONLY, DEBUGGING, OCTETS
 17 .debug_line   00004010  00000000  00000000  00047e82  2**0
                  CONTENTS, READONLY, DEBUGGING, OCTETS
 18 .debug_str    000db9b7  00000000  00000000  0004be92  2**0
                  CONTENTS, READONLY, DEBUGGING, OCTETS
 19 .comment      00000053  00000000  00000000  00127849  2**0
                  CONTENTS, READONLY
 20 .debug_frame  00000ce8  00000000  00000000  0012789c  2**2
                  CONTENTS, READONLY, DEBUGGING, OCTETS

Disassembly of section .text:

080001c8 <__do_global_dtors_aux>:
 80001c8:	b510      	push	{r4, lr}
 80001ca:	4c05      	ldr	r4, [pc, #20]	; (80001e0 <__do_global_dtors_aux+0x18>)
 80001cc:	7823      	ldrb	r3, [r4, #0]
 80001ce:	b933      	cbnz	r3, 80001de <__do_global_dtors_aux+0x16>
 80001d0:	4b04      	ldr	r3, [pc, #16]	; (80001e4 <__do_global_dtors_aux+0x1c>)
 80001d2:	b113      	cbz	r3, 80001da <__do_global_dtors_aux+0x12>
 80001d4:	4804      	ldr	r0, [pc, #16]	; (80001e8 <__do_global_dtors_aux+0x20>)
 80001d6:	f3af 8000 	nop.w
 80001da:	2301      	movs	r3, #1
 80001dc:	7023      	strb	r3, [r4, #0]
 80001de:	bd10      	pop	{r4, pc}
 80001e0:	2000000c 	.word	0x2000000c
 80001e4:	00000000 	.word	0x00000000
 80001e8:	08001254 	.word	0x08001254

080001ec <frame_dummy>:
 80001ec:	b508      	push	{r3, lr}
 80001ee:	4b03      	ldr	r3, [pc, #12]	; (80001fc <frame_dummy+0x10>)
 80001f0:	b11b      	cbz	r3, 80001fa <frame_dummy+0xe>
 80001f2:	4903      	ldr	r1, [pc, #12]	; (8000200 <frame_dummy+0x14>)
 80001f4:	4803      	ldr	r0, [pc, #12]	; (8000204 <frame_dummy+0x18>)
 80001f6:	f3af 8000 	nop.w
 80001fa:	bd08      	pop	{r3, pc}
 80001fc:	00000000 	.word	0x00000000
 8000200:	20000010 	.word	0x20000010
 8000204:	08001254 	.word	0x08001254

08000208 <__aeabi_uldivmod>:
 8000208:	b953      	cbnz	r3, 8000220 <__aeabi_uldivmod+0x18>
 800020a:	b94a      	cbnz	r2, 8000220 <__aeabi_uldivmod+0x18>
 800020c:	2900      	cmp	r1, #0
 800020e:	bf08      	it	eq
 8000210:	2800      	cmpeq	r0, #0
 8000212:	bf1c      	itt	ne
 8000214:	f04f 31ff 	movne.w	r1, #4294967295
 8000218:	f04f 30ff 	movne.w	r0, #4294967295
 800021c:	f000 b96e 	b.w	80004fc <__aeabi_idiv0>
 8000220:	f1ad 0c08 	sub.w	ip, sp, #8
 8000224:	e96d ce04 	strd	ip, lr, [sp, #-16]!
 8000228:	f000 f806 	bl	8000238 <__udivmoddi4>
 800022c:	f8dd e004 	ldr.w	lr, [sp, #4]
 8000230:	e9dd 2302 	ldrd	r2, r3, [sp, #8]
 8000234:	b004      	add	sp, #16
 8000236:	4770      	bx	lr

08000238 <__udivmoddi4>:
 8000238:	e92d 47f0 	stmdb	sp!, {r4, r5, r6, r7, r8, r9, sl, lr}
 800023c:	9d08      	ldr	r5, [sp, #32]
 800023e:	4604      	mov	r4, r0
 8000240:	468c      	mov	ip, r1
 8000242:	2b00      	cmp	r3, #0
 8000244:	f040 8083 	bne.w	800034e <__udivmoddi4+0x116>
 8000248:	428a      	cmp	r2, r1
 800024a:	4617      	mov	r7, r2
 800024c:	d947      	bls.n	80002de <__udivmoddi4+0xa6>
 800024e:	fab2 f282 	clz	r2, r2
 8000252:	b142      	cbz	r2, 8000266 <__udivmoddi4+0x2e>
 8000254:	f1c2 0020 	rsb	r0, r2, #32
 8000258:	fa24 f000 	lsr.w	r0, r4, r0
 800025c:	4091      	lsls	r1, r2
 800025e:	4097      	lsls	r7, r2
 8000260:	ea40 0c01 	orr.w	ip, r0, r1
 8000264:	4094      	lsls	r4, r2
 8000266:	ea4f 4817 	mov.w	r8, r7, lsr #16
 800026a:	0c23      	lsrs	r3, r4, #16
 800026c:	fbbc f6f8 	udiv	r6, ip, r8
 8000270:	fa1f fe87 	uxth.w	lr, r7
 8000274:	fb08 c116 	mls	r1, r8, r6, ip
 8000278:	ea43 4301 	orr.w	r3, r3, r1, lsl #16
 800027c:	fb06 f10e 	mul.w	r1, r6, lr
 8000280:	4299      	cmp	r1, r3
 8000282:	d909      	bls.n	8000298 <__udivmoddi4+0x60>
 8000284:	18fb      	adds	r3, r7, r3
 8000286:	f106 30ff 	add.w	r0, r6, #4294967295
 800028a:	f080 8119 	bcs.w	80004c0 <__udivmoddi4+0x288>
 800028e:	4299      	cmp	r1, r3
 8000290:	f240 8116 	bls.w	80004c0 <__udivmoddi4+0x288>
 8000294:	3e02      	subs	r6, #2
 8000296:	443b      	add	r3, r7
 8000298:	1a5b      	subs	r3, r3, r1
 800029a:	b2a4      	uxth	r4, r4
 800029c:	fbb3 f0f8 	udiv	r0, r3, r8
 80002a0:	fb08 3310 	mls	r3, r8, r0, r3
 80002a4:	ea44 4403 	orr.w	r4, r4, r3, lsl #16
 80002a8:	fb00 fe0e 	mul.w	lr, r0, lr
 80002ac:	45a6      	cmp	lr, r4
 80002ae:	d909      	bls.n	80002c4 <__udivmoddi4+0x8c>
 80002b0:	193c      	adds	r4, r7, r4
 80002b2:	f100 33ff 	add.w	r3, r0, #4294967295
 80002b6:	f080 8105 	bcs.w	80004c4 <__udivmoddi4+0x28c>
 80002ba:	45a6      	cmp	lr, r4
 80002bc:	f240 8102 	bls.w	80004c4 <__udivmoddi4+0x28c>
 80002c0:	3802      	subs	r0, #2
 80002c2:	443c      	add	r4, r7
 80002c4:	ea40 4006 	orr.w	r0, r0, r6, lsl #16
 80002c8:	eba4 040e 	sub.w	r4, r4, lr
 80002cc:	2600      	movs	r6, #0
 80002ce:	b11d      	cbz	r5, 80002d8 <__udivmoddi4+0xa0>
 80002d0:	40d4      	lsrs	r4, r2
 80002d2:	2300      	movs	r3, #0
 80002d4:	e9c5 4300 	strd	r4, r3, [r5]
 80002d8:	4631      	mov	r1, r6
 80002da:	e8bd 87f0 	ldmia.w	sp!, {r4, r5, r6, r7, r8, r9, sl, pc}
 80002de:	b902      	cbnz	r2, 80002e2 <__udivmoddi4+0xaa>
 80002e0:	deff      	udf	#255	; 0xff
 80002e2:	fab2 f282 	clz	r2, r2
 80002e6:	2a00      	cmp	r2, #0
 80002e8:	d150      	bne.n	800038c <__udivmoddi4+0x154>
 80002ea:	1bcb      	subs	r3, r1, r7
 80002ec:	ea4f 4e17 	mov.w	lr, r7, lsr #16
 80002f0:	fa1f f887 	uxth.w	r8, r7
 80002f4:	2601      	movs	r6, #1
 80002f6:	fbb3 fcfe 	udiv	ip, r3, lr
 80002fa:	0c21      	lsrs	r1, r4, #16
 80002fc:	fb0e 331c 	mls	r3, lr, ip, r3
 8000300:	ea41 4103 	orr.w	r1, r1, r3, lsl #16
 8000304:	fb08 f30c 	mul.w	r3, r8, ip
 8000308:	428b      	cmp	r3, r1
 800030a:	d907      	bls.n	800031c <__udivmoddi4+0xe4>
 800030c:	1879      	adds	r1, r7, r1
 800030e:	f10c 30ff 	add.w	r0, ip, #4294967295
 8000312:	d202      	bcs.n	800031a <__udivmoddi4+0xe2>
 8000314:	428b      	cmp	r3, r1
 8000316:	f200 80e9 	bhi.w	80004ec <__udivmoddi4+0x2b4>
 800031a:	4684      	mov	ip, r0
 800031c:	1ac9      	subs	r1, r1, r3
 800031e:	b2a3      	uxth	r3, r4
 8000320:	fbb1 f0fe 	udiv	r0, r1, lr
 8000324:	fb0e 1110 	mls	r1, lr, r0, r1
 8000328:	ea43 4401 	orr.w	r4, r3, r1, lsl #16
 800032c:	fb08 f800 	mul.w	r8, r8, r0
 8000330:	45a0      	cmp	r8, r4
 8000332:	d907      	bls.n	8000344 <__udivmoddi4+0x10c>
 8000334:	193c      	adds	r4, r7, r4
 8000336:	f100 33ff 	add.w	r3, r0, #4294967295
 800033a:	d202      	bcs.n	8000342 <__udivmoddi4+0x10a>
 800033c:	45a0      	cmp	r8, r4
 800033e:	f200 80d9 	bhi.w	80004f4 <__udivmoddi4+0x2bc>
 8000342:	4618      	mov	r0, r3
 8000344:	eba4 0408 	sub.w	r4, r4, r8
 8000348:	ea40 400c 	orr.w	r0, r0, ip, lsl #16
 800034c:	e7bf      	b.n	80002ce <__udivmoddi4+0x96>
 800034e:	428b      	cmp	r3, r1
 8000350:	d909      	bls.n	8000366 <__udivmoddi4+0x12e>
 8000352:	2d00      	cmp	r5, #0
 8000354:	f000 80b1 	beq.w	80004ba <__udivmoddi4+0x282>
 8000358:	2600      	movs	r6, #0
 800035a:	e9c5 0100 	strd	r0, r1, [r5]
 800035e:	4630      	mov	r0, r6
 8000360:	4631      	mov	r1, r6
 8000362:	e8bd 87f0 	ldmia.w	sp!, {r4, r5, r6, r7, r8, r9, sl, pc}
 8000366:	fab3 f683 	clz	r6, r3
 800036a:	2e00      	cmp	r6, #0
 800036c:	d14a      	bne.n	8000404 <__udivmoddi4+0x1cc>
 800036e:	428b      	cmp	r3, r1
 8000370:	d302      	bcc.n	8000378 <__udivmoddi4+0x140>
 8000372:	4282      	cmp	r2, r0
 8000374:	f200 80b8 	bhi.w	80004e8 <__udivmoddi4+0x2b0>
 8000378:	1a84      	subs	r4, r0, r2
 800037a:	eb61 0103 	sbc.w	r1, r1, r3
 800037e:	2001      	movs	r0, #1
 8000380:	468c      	mov	ip, r1
 8000382:	2d00      	cmp	r5, #0
 8000384:	d0a8      	beq.n	80002d8 <__udivmoddi4+0xa0>
 8000386:	e9c5 4c00 	strd	r4, ip, [r5]
 800038a:	e7a5      	b.n	80002d8 <__udivmoddi4+0xa0>
 800038c:	f1c2 0320 	rsb	r3, r2, #32
 8000390:	fa20 f603 	lsr.w	r6, r0, r3
 8000394:	4097      	lsls	r7, r2
 8000396:	fa01 f002 	lsl.w	r0, r1, r2
 800039a:	ea4f 4e17 	mov.w	lr, r7, lsr #16
 800039e:	40d9      	lsrs	r1, r3
 80003a0:	4330      	orrs	r0, r6
 80003a2:	0c03      	lsrs	r3, r0, #16
 80003a4:	fbb1 f6fe 	udiv	r6, r1, lr
 80003a8:	fa1f f887 	uxth.w	r8, r7
 80003ac:	fb0e 1116 	mls	r1, lr, r6, r1
 80003b0:	ea43 4301 	orr.w	r3, r3, r1, lsl #16
 80003b4:	fb06 f108 	mul.w	r1, r6, r8
 80003b8:	4299      	cmp	r1, r3
 80003ba:	fa04 f402 	lsl.w	r4, r4, r2
 80003be:	d909      	bls.n	80003d4 <__udivmoddi4+0x19c>
 80003c0:	18fb      	adds	r3, r7, r3
 80003c2:	f106 3cff 	add.w	ip, r6, #4294967295
 80003c6:	f080 808d 	bcs.w	80004e4 <__udivmoddi4+0x2ac>
 80003ca:	4299      	cmp	r1, r3
 80003cc:	f240 808a 	bls.w	80004e4 <__udivmoddi4+0x2ac>
 80003d0:	3e02      	subs	r6, #2
 80003d2:	443b      	add	r3, r7
 80003d4:	1a5b      	subs	r3, r3, r1
 80003d6:	b281      	uxth	r1, r0
 80003d8:	fbb3 f0fe 	udiv	r0, r3, lr
 80003dc:	fb0e 3310 	mls	r3, lr, r0, r3
 80003e0:	ea41 4103 	orr.w	r1, r1, r3, lsl #16
 80003e4:	fb00 f308 	mul.w	r3, r0, r8
 80003e8:	428b      	cmp	r3, r1
 80003ea:	d907      	bls.n	80003fc <__udivmoddi4+0x1c4>
 80003ec:	1879      	adds	r1, r7, r1
 80003ee:	f100 3cff 	add.w	ip, r0, #4294967295
 80003f2:	d273      	bcs.n	80004dc <__udivmoddi4+0x2a4>
 80003f4:	428b      	cmp	r3, r1
 80003f6:	d971      	bls.n	80004dc <__udivmoddi4+0x2a4>
 80003f8:	3802      	subs	r0, #2
 80003fa:	4439      	add	r1, r7
 80003fc:	1acb      	subs	r3, r1, r3
 80003fe:	ea40 4606 	orr.w	r6, r0, r6, lsl #16
 8000402:	e778      	b.n	80002f6 <__udivmoddi4+0xbe>
 8000404:	f1c6 0c20 	rsb	ip, r6, #32
 8000408:	fa03 f406 	lsl.w	r4, r3, r6
 800040c:	fa22 f30c 	lsr.w	r3, r2, ip
 8000410:	431c      	orrs	r4, r3
 8000412:	fa20 f70c 	lsr.w	r7, r0, ip
 8000416:	fa01 f306 	lsl.w	r3, r1, r6
 800041a:	ea4f 4e14 	mov.w	lr, r4, lsr #16
 800041e:	fa21 f10c 	lsr.w	r1, r1, ip
 8000422:	431f      	orrs	r7, r3
 8000424:	0c3b      	lsrs	r3, r7, #16
 8000426:	fbb1 f9fe 	udiv	r9, r1, lr
 800042a:	fa1f f884 	uxth.w	r8, r4
 800042e:	fb0e 1119 	mls	r1, lr, r9, r1
 8000432:	ea43 4101 	orr.w	r1, r3, r1, lsl #16
 8000436:	fb09 fa08 	mul.w	sl, r9, r8
 800043a:	458a      	cmp	sl, r1
 800043c:	fa02 f206 	lsl.w	r2, r2, r6
 8000440:	fa00 f306 	lsl.w	r3, r0, r6
 8000444:	d908      	bls.n	8000458 <__udivmoddi4+0x220>
 8000446:	1861      	adds	r1, r4, r1
 8000448:	f109 30ff 	add.w	r0, r9, #4294967295
 800044c:	d248      	bcs.n	80004e0 <__udivmoddi4+0x2a8>
 800044e:	458a      	cmp	sl, r1
 8000450:	d946      	bls.n	80004e0 <__udivmoddi4+0x2a8>
 8000452:	f1a9 0902 	sub.w	r9, r9, #2
 8000456:	4421      	add	r1, r4
 8000458:	eba1 010a 	sub.w	r1, r1, sl
 800045c:	b2bf      	uxth	r7, r7
 800045e:	fbb1 f0fe 	udiv	r0, r1, lr
 8000462:	fb0e 1110 	mls	r1, lr, r0, r1
 8000466:	ea47 4701 	orr.w	r7, r7, r1, lsl #16
 800046a:	fb00 f808 	mul.w	r8, r0, r8
 800046e:	45b8      	cmp	r8, r7
 8000470:	d907      	bls.n	8000482 <__udivmoddi4+0x24a>
 8000472:	19e7      	adds	r7, r4, r7
 8000474:	f100 31ff 	add.w	r1, r0, #4294967295
 8000478:	d22e      	bcs.n	80004d8 <__udivmoddi4+0x2a0>
 800047a:	45b8      	cmp	r8, r7
 800047c:	d92c      	bls.n	80004d8 <__udivmoddi4+0x2a0>
 800047e:	3802      	subs	r0, #2
 8000480:	4427      	add	r7, r4
 8000482:	ea40 4009 	orr.w	r0, r0, r9, lsl #16
 8000486:	eba7 0708 	sub.w	r7, r7, r8
 800048a:	fba0 8902 	umull	r8, r9, r0, r2
 800048e:	454f      	cmp	r7, r9
 8000490:	46c6      	mov	lr, r8
 8000492:	4649      	mov	r1, r9
 8000494:	d31a      	bcc.n	80004cc <__udivmoddi4+0x294>
 8000496:	d017      	beq.n	80004c8 <__udivmoddi4+0x290>
 8000498:	b15d      	cbz	r5, 80004b2 <__udivmoddi4+0x27a>
 800049a:	ebb3 020e 	subs.w	r2, r3, lr
 800049e:	eb67 0701 	sbc.w	r7, r7, r1
 80004a2:	fa07 fc0c 	lsl.w	ip, r7, ip
 80004a6:	40f2      	lsrs	r2, r6
 80004a8:	ea4c 0202 	orr.w	r2, ip, r2
 80004ac:	40f7      	lsrs	r7, r6
 80004ae:	e9c5 2700 	strd	r2, r7, [r5]
 80004b2:	2600      	movs	r6, #0
 80004b4:	4631      	mov	r1, r6
 80004b6:	e8bd 87f0 	ldmia.w	sp!, {r4, r5, r6, r7, r8, r9, sl, pc}
 80004ba:	462e      	mov	r6, r5
 80004bc:	4628      	mov	r0, r5
 80004be:	e70b      	b.n	80002d8 <__udivmoddi4+0xa0>
 80004c0:	4606      	mov	r6, r0
 80004c2:	e6e9      	b.n	8000298 <__udivmoddi4+0x60>
 80004c4:	4618      	mov	r0, r3
 80004c6:	e6fd      	b.n	80002c4 <__udivmoddi4+0x8c>
 80004c8:	4543      	cmp	r3, r8
 80004ca:	d2e5      	bcs.n	8000498 <__udivmoddi4+0x260>
 80004cc:	ebb8 0e02 	subs.w	lr, r8, r2
 80004d0:	eb69 0104 	sbc.w	r1, r9, r4
 80004d4:	3801      	subs	r0, #1
 80004d6:	e7df      	b.n	8000498 <__udivmoddi4+0x260>
 80004d8:	4608      	mov	r0, r1
 80004da:	e7d2      	b.n	8000482 <__udivmoddi4+0x24a>
 80004dc:	4660      	mov	r0, ip
 80004de:	e78d      	b.n	80003fc <__udivmoddi4+0x1c4>
 80004e0:	4681      	mov	r9, r0
 80004e2:	e7b9      	b.n	8000458 <__udivmoddi4+0x220>
 80004e4:	4666      	mov	r6, ip
 80004e6:	e775      	b.n	80003d4 <__udivmoddi4+0x19c>
 80004e8:	4630      	mov	r0, r6
 80004ea:	e74a      	b.n	8000382 <__udivmoddi4+0x14a>
 80004ec:	f1ac 0c02 	sub.w	ip, ip, #2
 80004f0:	4439      	add	r1, r7
 80004f2:	e713      	b.n	800031c <__udivmoddi4+0xe4>
 80004f4:	3802      	subs	r0, #2
 80004f6:	443c      	add	r4, r7
 80004f8:	e724      	b.n	8000344 <__udivmoddi4+0x10c>
 80004fa:	bf00      	nop

080004fc <__aeabi_idiv0>:
 80004fc:	4770      	bx	lr
 80004fe:	bf00      	nop

08000500 <main>:
/**
  * @brief  The application entry point.
  * @retval int
  */
int main(void)
{
 8000500:	b580      	push	{r7, lr}
 8000502:	b082      	sub	sp, #8
 8000504:	af00      	add	r7, sp, #0
  /* USER CO END 1 */

  /* MCU Configuration--------------------------------------------------------*/

  /* Reset of all peripherals, Initializes the Flash interface and the Systick. */
  HAL_Init();
 8000506:	f000 f8f0 	bl	80006ea <HAL_Init>
  /* USER CODE BEGIN Init */

  /* USER CODE END Init */

  /* Configure the system clock */
  SystemClock_Config();
 800050a:	f000 f803 	bl	8000514 <SystemClock_Config>
  /* Infinite loop */
  /* USER CODE BEGIN WHILE */
  while (1)
  {
    /* USER CODE END WHILE */
    uint8_t test = 0;
 800050e:	2300      	movs	r3, #0
 8000510:	71fb      	strb	r3, [r7, #7]
  {
 8000512:	e7fc      	b.n	800050e <main+0xe>

08000514 <SystemClock_Config>:
/**
  * @brief System Clock Configuration
  * @retval None
  */
void SystemClock_Config(void)
{
 8000514:	b580      	push	{r7, lr}
 8000516:	b094      	sub	sp, #80	; 0x50
 8000518:	af00      	add	r7, sp, #0
  RCC_OscInitTypeDef RCC_OscInitStruct = {0};
 800051a:	f107 0320 	add.w	r3, r7, #32
 800051e:	2230      	movs	r2, #48	; 0x30
 8000520:	2100      	movs	r1, #0
 8000522:	4618      	mov	r0, r3
 8000524:	f000 fe8e 	bl	8001244 <memset>
  RCC_ClkInitTypeDef RCC_ClkInitStruct = {0};
 8000528:	f107 030c 	add.w	r3, r7, #12
 800052c:	2200      	movs	r2, #0
 800052e:	601a      	str	r2, [r3, #0]
 8000530:	605a      	str	r2, [r3, #4]
 8000532:	609a      	str	r2, [r3, #8]
 8000534:	60da      	str	r2, [r3, #12]
 8000536:	611a      	str	r2, [r3, #16]

  /** Configure the main internal regulator output voltage
  */
  __HAL_RCC_PWR_CLK_ENABLE();
 8000538:	4b22      	ldr	r3, [pc, #136]	; (80005c4 <SystemClock_Config+0xb0>)
 800053a:	6c1b      	ldr	r3, [r3, #64]	; 0x40
 800053c:	4a21      	ldr	r2, [pc, #132]	; (80005c4 <SystemClock_Config+0xb0>)
 800053e:	f043 5380 	orr.w	r3, r3, #268435456	; 0x10000000
 8000542:	6413      	str	r3, [r2, #64]	; 0x40
 8000544:	4b1f      	ldr	r3, [pc, #124]	; (80005c4 <SystemClock_Config+0xb0>)
 8000546:	6c1b      	ldr	r3, [r3, #64]	; 0x40
 8000548:	f003 5380 	and.w	r3, r3, #268435456	; 0x10000000
 800054c:	60bb      	str	r3, [r7, #8]
 800054e:	68bb      	ldr	r3, [r7, #8]
  __HAL_PWR_VOLTAGESCALING_CONFIG(PWR_REGULATOR_VOLTAGE_SCALE3);
 8000550:	4b1d      	ldr	r3, [pc, #116]	; (80005c8 <SystemClock_Config+0xb4>)
 8000552:	681b      	ldr	r3, [r3, #0]
 8000554:	f423 4340 	bic.w	r3, r3, #49152	; 0xc000
 8000558:	4a1b      	ldr	r2, [pc, #108]	; (80005c8 <SystemClock_Config+0xb4>)
 800055a:	f443 4380 	orr.w	r3, r3, #16384	; 0x4000
 800055e:	6013      	str	r3, [r2, #0]
 8000560:	4b19      	ldr	r3, [pc, #100]	; (80005c8 <SystemClock_Config+0xb4>)
 8000562:	681b      	ldr	r3, [r3, #0]
 8000564:	f403 4340 	and.w	r3, r3, #49152	; 0xc000
 8000568:	607b      	str	r3, [r7, #4]
 800056a:	687b      	ldr	r3, [r7, #4]
  /** Initializes the RCC Oscillators according to the specified parameters
  * in the RCC_OscInitTypeDef structure.
  */
  RCC_OscInitStruct.OscillatorType = RCC_OSCILLATORTYPE_HSI;
 800056c:	2302      	movs	r3, #2
 800056e:	623b      	str	r3, [r7, #32]
  RCC_OscInitStruct.HSIState = RCC_HSI_ON;
 8000570:	2301      	movs	r3, #1
 8000572:	62fb      	str	r3, [r7, #44]	; 0x2c
  RCC_OscInitStruct.HSICalibrationValue = RCC_HSICALIBRATION_DEFAULT;
 8000574:	2310      	movs	r3, #16
 8000576:	633b      	str	r3, [r7, #48]	; 0x30
  RCC_OscInitStruct.PLL.PLLState = RCC_PLL_NONE;
 8000578:	2300      	movs	r3, #0
 800057a:	63bb      	str	r3, [r7, #56]	; 0x38
  if (HAL_RCC_OscConfig(&RCC_OscInitStruct) != HAL_OK)
 800057c:	f107 0320 	add.w	r3, r7, #32
 8000580:	4618      	mov	r0, r3
 8000582:	f000 f9f5 	bl	8000970 <HAL_RCC_OscConfig>
 8000586:	4603      	mov	r3, r0
 8000588:	2b00      	cmp	r3, #0
 800058a:	d001      	beq.n	8000590 <SystemClock_Config+0x7c>
  {
    Error_Handler();
 800058c:	f000 f81e 	bl	80005cc <Error_Handler>
  }
  /** Initializes the CPU, AHB and APB buses clocks
  */
  RCC_ClkInitStruct.ClockType = RCC_CLOCKTYPE_HCLK|RCC_CLOCKTYPE_SYSCLK
 8000590:	230f      	movs	r3, #15
 8000592:	60fb      	str	r3, [r7, #12]
                              |RCC_CLOCKTYPE_PCLK1|RCC_CLOCKTYPE_PCLK2;
  RCC_ClkInitStruct.SYSCLKSource = RCC_SYSCLKSOURCE_HSI;
 8000594:	2300      	movs	r3, #0
 8000596:	613b      	str	r3, [r7, #16]
  RCC_ClkInitStruct.AHBCLKDivider = RCC_SYSCLK_DIV1;
 8000598:	2300      	movs	r3, #0
 800059a:	617b      	str	r3, [r7, #20]
  RCC_ClkInitStruct.APB1CLKDivider = RCC_HCLK_DIV1;
 800059c:	2300      	movs	r3, #0
 800059e:	61bb      	str	r3, [r7, #24]
  RCC_ClkInitStruct.APB2CLKDivider = RCC_HCLK_DIV1;
 80005a0:	2300      	movs	r3, #0
 80005a2:	61fb      	str	r3, [r7, #28]

  if (HAL_RCC_ClockConfig(&RCC_ClkInitStruct, FLASH_LATENCY_0) != HAL_OK)
 80005a4:	f107 030c 	add.w	r3, r7, #12
 80005a8:	2100      	movs	r1, #0
 80005aa:	4618      	mov	r0, r3
 80005ac:	f000 fc84 	bl	8000eb8 <HAL_RCC_ClockConfig>
 80005b0:	4603      	mov	r3, r0
 80005b2:	2b00      	cmp	r3, #0
 80005b4:	d001      	beq.n	80005ba <SystemClock_Config+0xa6>
  {
    Error_Handler();
 80005b6:	f000 f809 	bl	80005cc <Error_Handler>
  }
}
 80005ba:	bf00      	nop
 80005bc:	3750      	adds	r7, #80	; 0x50
 80005be:	46bd      	mov	sp, r7
 80005c0:	bd80      	pop	{r7, pc}
 80005c2:	bf00      	nop
 80005c4:	40023800 	.word	0x40023800
 80005c8:	40007000 	.word	0x40007000

080005cc <Error_Handler>:
/**
  * @brief  This function is executed in case of error occurrence.
  * @retval None
  */
void Error_Handler(void)
{
 80005cc:	b480      	push	{r7}
 80005ce:	af00      	add	r7, sp, #0
  \details Disables IRQ interrupts by setting the I-bit in the CPSR.
           Can only be executed in Privileged modes.
 */
__STATIC_FORCEINLINE void __disable_irq(void)
{
  __ASM volatile ("cpsid i" : : : "memory");
 80005d0:	b672      	cpsid	i
}
 80005d2:	bf00      	nop
  /* USER CODE BEGIN Error_Handler_Debug */
  /* User can add his own implementation to report the HAL error return state */
  __disable_irq();
  while (1)
 80005d4:	e7fe      	b.n	80005d4 <Error_Handler+0x8>
	...

080005d8 <HAL_MspInit>:
/* USER CODE END 0 */
/**
  * Initializes the Global MSP.
  */
void HAL_MspInit(void)
{
 80005d8:	b480      	push	{r7}
 80005da:	b083      	sub	sp, #12
 80005dc:	af00      	add	r7, sp, #0
  /* USER CODE BEGIN MspInit 0 */

  /* USER CODE END MspInit 0 */

  __HAL_RCC_PWR_CLK_ENABLE();
 80005de:	4b0f      	ldr	r3, [pc, #60]	; (800061c <HAL_MspInit+0x44>)
 80005e0:	6c1b      	ldr	r3, [r3, #64]	; 0x40
 80005e2:	4a0e      	ldr	r2, [pc, #56]	; (800061c <HAL_MspInit+0x44>)
 80005e4:	f043 5380 	orr.w	r3, r3, #268435456	; 0x10000000
 80005e8:	6413      	str	r3, [r2, #64]	; 0x40
 80005ea:	4b0c      	ldr	r3, [pc, #48]	; (800061c <HAL_MspInit+0x44>)
 80005ec:	6c1b      	ldr	r3, [r3, #64]	; 0x40
 80005ee:	f003 5380 	and.w	r3, r3, #268435456	; 0x10000000
 80005f2:	607b      	str	r3, [r7, #4]
 80005f4:	687b      	ldr	r3, [r7, #4]
  __HAL_RCC_SYSCFG_CLK_ENABLE();
 80005f6:	4b09      	ldr	r3, [pc, #36]	; (800061c <HAL_MspInit+0x44>)
 80005f8:	6c5b      	ldr	r3, [r3, #68]	; 0x44
 80005fa:	4a08      	ldr	r2, [pc, #32]	; (800061c <HAL_MspInit+0x44>)
 80005fc:	f443 4380 	orr.w	r3, r3, #16384	; 0x4000
 8000600:	6453      	str	r3, [r2, #68]	; 0x44
 8000602:	4b06      	ldr	r3, [pc, #24]	; (800061c <HAL_MspInit+0x44>)
 8000604:	6c5b      	ldr	r3, [r3, #68]	; 0x44
 8000606:	f403 4380 	and.w	r3, r3, #16384	; 0x4000
 800060a:	603b      	str	r3, [r7, #0]
 800060c:	683b      	ldr	r3, [r7, #0]
  /* System interrupt init*/

  /* USER CODE BEGIN MspInit 1 */

  /* USER CODE END MspInit 1 */
}
 800060e:	bf00      	nop
 8000610:	370c      	adds	r7, #12
 8000612:	46bd      	mov	sp, r7
 8000614:	f85d 7b04 	ldr.w	r7, [sp], #4
 8000618:	4770      	bx	lr
 800061a:	bf00      	nop
 800061c:	40023800 	.word	0x40023800

08000620 <NMI_Handler>:
/******************************************************************************/
/**
  * @brief This function handles Non maskable interrupt.
  */
void NMI_Handler(void)
{
 8000620:	b480      	push	{r7}
 8000622:	af00      	add	r7, sp, #0
  /* USER CODE BEGIN NonMaskableInt_IRQn 0 */

  /* USER CODE END NonMaskableInt_IRQn 0 */
  /* USER CODE BEGIN NonMaskableInt_IRQn 1 */
  while (1)
 8000624:	e7fe      	b.n	8000624 <NMI_Handler+0x4>

08000626 <HardFault_Handler>:

/**
  * @brief This function handles Hard fault interrupt.
  */
void HardFault_Handler(void)
{
 8000626:	b480      	push	{r7}
 8000628:	af00      	add	r7, sp, #0
  /* USER CODE BEGIN HardFault_IRQn 0 */

  /* USER CODE END HardFault_IRQn 0 */
  while (1)
 800062a:	e7fe      	b.n	800062a <HardFault_Handler+0x4>

0800062c <MemManage_Handler>:

/**
  * @brief This function handles Memory management fault.
  */
void MemManage_Handler(void)
{
 800062c:	b480      	push	{r7}
 800062e:	af00      	add	r7, sp, #0
  /* USER CODE BEGIN MemoryManagement_IRQn 0 */

  /* USER CODE END MemoryManagement_IRQn 0 */
  while (1)
 8000630:	e7fe      	b.n	8000630 <MemManage_Handler+0x4>

08000632 <BusFault_Handler>:

/**
  * @brief This function handles Pre-fetch fault, memory access fault.
  */
void BusFault_Handler(void)
{
 8000632:	b480      	push	{r7}
 8000634:	af00      	add	r7, sp, #0
  /* USER CODE BEGIN BusFault_IRQn 0 */

  /* USER CODE END BusFault_IRQn 0 */
  while (1)
 8000636:	e7fe      	b.n	8000636 <BusFault_Handler+0x4>

08000638 <UsageFault_Handler>:

/**
  * @brief This function handles Undefined instruction or illegal state.
  */
void UsageFault_Handler(void)
{
 8000638:	b480      	push	{r7}
 800063a:	af00      	add	r7, sp, #0
  /* USER CODE BEGIN UsageFault_IRQn 0 */

  /* USER CODE END UsageFault_IRQn 0 */
  while (1)
 800063c:	e7fe      	b.n	800063c <UsageFault_Handler+0x4>

0800063e <SVC_Handler>:

/**
  * @brief This function handles System service call via SWI instruction.
  */
void SVC_Handler(void)
{
 800063e:	b480      	push	{r7}
 8000640:	af00      	add	r7, sp, #0

  /* USER CODE END SVCall_IRQn 0 */
  /* USER CODE BEGIN SVCall_IRQn 1 */

  /* USER CODE END SVCall_IRQn 1 */
}
 8000642:	bf00      	nop
 8000644:	46bd      	mov	sp, r7
 8000646:	f85d 7b04 	ldr.w	r7, [sp], #4
 800064a:	4770      	bx	lr

0800064c <DebugMon_Handler>:

/**
  * @brief This function handles Debug monitor.
  */
void DebugMon_Handler(void)
{
 800064c:	b480      	push	{r7}
 800064e:	af00      	add	r7, sp, #0

  /* USER CODE END DebugMonitor_IRQn 0 */
  /* USER CODE BEGIN DebugMonitor_IRQn 1 */

  /* USER CODE END DebugMonitor_IRQn 1 */
}
 8000650:	bf00      	nop
 8000652:	46bd      	mov	sp, r7
 8000654:	f85d 7b04 	ldr.w	r7, [sp], #4
 8000658:	4770      	bx	lr

0800065a <PendSV_Handler>:

/**
  * @brief This function handles Pendable request for system service.
  */
void PendSV_Handler(void)
{
 800065a:	b480      	push	{r7}
 800065c:	af00      	add	r7, sp, #0

  /* USER CODE END PendSV_IRQn 0 */
  /* USER CODE BEGIN PendSV_IRQn 1 */

  /* USER CODE END PendSV_IRQn 1 */
}
 800065e:	bf00      	nop
 8000660:	46bd      	mov	sp, r7
 8000662:	f85d 7b04 	ldr.w	r7, [sp], #4
 8000666:	4770      	bx	lr

08000668 <SysTick_Handler>:

/**
  * @brief This function handles System tick timer.
  */
void SysTick_Handler(void)
{
 8000668:	b580      	push	{r7, lr}
 800066a:	af00      	add	r7, sp, #0
  /* USER CODE BEGIN SysTick_IRQn 0 */

  /* USER CODE END SysTick_IRQn 0 */
  HAL_IncTick();
 800066c:	f000 f87a 	bl	8000764 <HAL_IncTick>
  /* USER CODE BEGIN SysTick_IRQn 1 */

  /* USER CODE END SysTick_IRQn 1 */
}
 8000670:	bf00      	nop
 8000672:	bd80      	pop	{r7, pc}

08000674 <SystemInit>:
  *         SystemFrequency variable.
  * @param  None
  * @retval None
  */
void SystemInit(void)
{
 8000674:	b480      	push	{r7}
 8000676:	af00      	add	r7, sp, #0
  /* FPU settings ------------------------------------------------------------*/
#if (__FPU_PRESENT == 1) && (__FPU_USED == 1)
  SCB->CPACR |= ((3UL << 10*2)|(3UL << 11*2));  /* set CP10 and CP11 Full Access */
 8000678:	4b06      	ldr	r3, [pc, #24]	; (8000694 <SystemInit+0x20>)
 800067a:	f8d3 3088 	ldr.w	r3, [r3, #136]	; 0x88
 800067e:	4a05      	ldr	r2, [pc, #20]	; (8000694 <SystemInit+0x20>)
 8000680:	f443 0370 	orr.w	r3, r3, #15728640	; 0xf00000
 8000684:	f8c2 3088 	str.w	r3, [r2, #136]	; 0x88

  /* Configure the Vector Table location -------------------------------------*/
#if defined(USER_VECT_TAB_ADDRESS)
  SCB->VTOR = VECT_TAB_BASE_ADDRESS | VECT_TAB_OFFSET; /* Vector Table Relocation in Internal SRAM */
#endif /* USER_VECT_TAB_ADDRESS */
}
 8000688:	bf00      	nop
 800068a:	46bd      	mov	sp, r7
 800068c:	f85d 7b04 	ldr.w	r7, [sp], #4
 8000690:	4770      	bx	lr
 8000692:	bf00      	nop
 8000694:	e000ed00 	.word	0xe000ed00

08000698 <Reset_Handler>:

    .section  .text.Reset_Handler
  .weak  Reset_Handler
  .type  Reset_Handler, %function
Reset_Handler:  
  ldr   sp, =_estack      /* set stack pointer */
 8000698:	f8df d034 	ldr.w	sp, [pc, #52]	; 80006d0 <LoopFillZerobss+0x12>

/* Copy the data segment initializers from flash to SRAM */  
  ldr r0, =_sdata
 800069c:	480d      	ldr	r0, [pc, #52]	; (80006d4 <LoopFillZerobss+0x16>)
  ldr r1, =_edata
 800069e:	490e      	ldr	r1, [pc, #56]	; (80006d8 <LoopFillZerobss+0x1a>)
  ldr r2, =_sidata
 80006a0:	4a0e      	ldr	r2, [pc, #56]	; (80006dc <LoopFillZerobss+0x1e>)
  movs r3, #0
 80006a2:	2300      	movs	r3, #0
  b LoopCopyDataInit
 80006a4:	e002      	b.n	80006ac <LoopCopyDataInit>

080006a6 <CopyDataInit>:

CopyDataInit:
  ldr r4, [r2, r3]
 80006a6:	58d4      	ldr	r4, [r2, r3]
  str r4, [r0, r3]
 80006a8:	50c4      	str	r4, [r0, r3]
  adds r3, r3, #4
 80006aa:	3304      	adds	r3, #4

080006ac <LoopCopyDataInit>:

LoopCopyDataInit:
  adds r4, r0, r3
 80006ac:	18c4      	adds	r4, r0, r3
  cmp r4, r1
 80006ae:	428c      	cmp	r4, r1
  bcc CopyDataInit
 80006b0:	d3f9      	bcc.n	80006a6 <CopyDataInit>
  
/* Zero fill the bss segment. */
  ldr r2, =_sbss
 80006b2:	4a0b      	ldr	r2, [pc, #44]	; (80006e0 <LoopFillZerobss+0x22>)
  ldr r4, =_ebss
 80006b4:	4c0b      	ldr	r4, [pc, #44]	; (80006e4 <LoopFillZerobss+0x26>)
  movs r3, #0
 80006b6:	2300      	movs	r3, #0
  b LoopFillZerobss
 80006b8:	e001      	b.n	80006be <LoopFillZerobss>

080006ba <FillZerobss>:

FillZerobss:
  str  r3, [r2]
 80006ba:	6013      	str	r3, [r2, #0]
  adds r2, r2, #4
 80006bc:	3204      	adds	r2, #4

080006be <LoopFillZerobss>:

LoopFillZerobss:
  cmp r2, r4
 80006be:	42a2      	cmp	r2, r4
  bcc FillZerobss
 80006c0:	d3fb      	bcc.n	80006ba <FillZerobss>

/* Call the clock system initialization function.*/
  bl  SystemInit   
 80006c2:	f7ff ffd7 	bl	8000674 <SystemInit>
/* Call static constructors */
    bl __libc_init_array
 80006c6:	f000 fd99 	bl	80011fc <__libc_init_array>
/* Call the application's entry point.*/
  bl  main
 80006ca:	f7ff ff19 	bl	8000500 <main>
  bx  lr    
 80006ce:	4770      	bx	lr
  ldr   sp, =_estack      /* set stack pointer */
 80006d0:	20050000 	.word	0x20050000
  ldr r0, =_sdata
 80006d4:	20000000 	.word	0x20000000
  ldr r1, =_edata
 80006d8:	2000000c 	.word	0x2000000c
  ldr r2, =_sidata
 80006dc:	0800128c 	.word	0x0800128c
  ldr r2, =_sbss
 80006e0:	2000000c 	.word	0x2000000c
  ldr r4, =_ebss
 80006e4:	2000002c 	.word	0x2000002c

080006e8 <ADC_IRQHandler>:
 * @retval None       
*/
    .section  .text.Default_Handler,"ax",%progbits
Default_Handler:
Infinite_Loop:
  b  Infinite_Loop
 80006e8:	e7fe      	b.n	80006e8 <ADC_IRQHandler>

080006ea <HAL_Init>:
  *         need to ensure that the SysTick time base is always set to 1 millisecond
  *         to have correct HAL operation.
  * @retval HAL status
  */
HAL_StatusTypeDef HAL_Init(void)
{
 80006ea:	b580      	push	{r7, lr}
 80006ec:	af00      	add	r7, sp, #0
#if (PREFETCH_ENABLE != 0U)
  __HAL_FLASH_PREFETCH_BUFFER_ENABLE();
#endif /* PREFETCH_ENABLE */

  /* Set Interrupt Group Priority */
  HAL_NVIC_SetPriorityGrouping(NVIC_PRIORITYGROUP_4);
 80006ee:	2003      	movs	r0, #3
 80006f0:	f000 f90a 	bl	8000908 <HAL_NVIC_SetPriorityGrouping>

  /* Use systick as time base source and configure 1ms tick (default clock after Reset is HSI) */
  HAL_InitTick(TICK_INT_PRIORITY);
 80006f4:	2000      	movs	r0, #0
 80006f6:	f000 f805 	bl	8000704 <HAL_InitTick>
  
  /* Init the low level hardware */
  HAL_MspInit();
 80006fa:	f7ff ff6d 	bl	80005d8 <HAL_MspInit>
  
  /* Return function status */
  return HAL_OK;
 80006fe:	2300      	movs	r3, #0
}
 8000700:	4618      	mov	r0, r3
 8000702:	bd80      	pop	{r7, pc}

08000704 <HAL_InitTick>:
  *       implementation  in user file.
  * @param TickPriority Tick interrupt priority.
  * @retval HAL status
  */
__weak HAL_StatusTypeDef HAL_InitTick(uint32_t TickPriority)
{
 8000704:	b580      	push	{r7, lr}
 8000706:	b082      	sub	sp, #8
 8000708:	af00      	add	r7, sp, #0
 800070a:	6078      	str	r0, [r7, #4]
  /* Configure the SysTick to have interrupt in 1ms time basis*/
  if (HAL_SYSTICK_Config(SystemCoreClock / (1000U / uwTickFreq)) > 0U)
 800070c:	4b12      	ldr	r3, [pc, #72]	; (8000758 <HAL_InitTick+0x54>)
 800070e:	681a      	ldr	r2, [r3, #0]
 8000710:	4b12      	ldr	r3, [pc, #72]	; (800075c <HAL_InitTick+0x58>)
 8000712:	781b      	ldrb	r3, [r3, #0]
 8000714:	4619      	mov	r1, r3
 8000716:	f44f 737a 	mov.w	r3, #1000	; 0x3e8
 800071a:	fbb3 f3f1 	udiv	r3, r3, r1
 800071e:	fbb2 f3f3 	udiv	r3, r2, r3
 8000722:	4618      	mov	r0, r3
 8000724:	f000 f917 	bl	8000956 <HAL_SYSTICK_Config>
 8000728:	4603      	mov	r3, r0
 800072a:	2b00      	cmp	r3, #0
 800072c:	d001      	beq.n	8000732 <HAL_InitTick+0x2e>
  {
    return HAL_ERROR;
 800072e:	2301      	movs	r3, #1
 8000730:	e00e      	b.n	8000750 <HAL_InitTick+0x4c>
  }

  /* Configure the SysTick IRQ priority */
  if (TickPriority < (1UL << __NVIC_PRIO_BITS))
 8000732:	687b      	ldr	r3, [r7, #4]
 8000734:	2b0f      	cmp	r3, #15
 8000736:	d80a      	bhi.n	800074e <HAL_InitTick+0x4a>
  {
    HAL_NVIC_SetPriority(SysTick_IRQn, TickPriority, 0U);
 8000738:	2200      	movs	r2, #0
 800073a:	6879      	ldr	r1, [r7, #4]
 800073c:	f04f 30ff 	mov.w	r0, #4294967295
 8000740:	f000 f8ed 	bl	800091e <HAL_NVIC_SetPriority>
    uwTickPrio = TickPriority;
 8000744:	4a06      	ldr	r2, [pc, #24]	; (8000760 <HAL_InitTick+0x5c>)
 8000746:	687b      	ldr	r3, [r7, #4]
 8000748:	6013      	str	r3, [r2, #0]
  {
    return HAL_ERROR;
  }

  /* Return function status */
  return HAL_OK;
 800074a:	2300      	movs	r3, #0
 800074c:	e000      	b.n	8000750 <HAL_InitTick+0x4c>
    return HAL_ERROR;
 800074e:	2301      	movs	r3, #1
}
 8000750:	4618      	mov	r0, r3
 8000752:	3708      	adds	r7, #8
 8000754:	46bd      	mov	sp, r7
 8000756:	bd80      	pop	{r7, pc}
 8000758:	20000000 	.word	0x20000000
 800075c:	20000008 	.word	0x20000008
 8000760:	20000004 	.word	0x20000004

08000764 <HAL_IncTick>:
 * @note This function is declared as __weak to be overwritten in case of other 
  *      implementations in user file.
  * @retval None
  */
__weak void HAL_IncTick(void)
{
 8000764:	b480      	push	{r7}
 8000766:	af00      	add	r7, sp, #0
  uwTick += uwTickFreq;
 8000768:	4b06      	ldr	r3, [pc, #24]	; (8000784 <HAL_IncTick+0x20>)
 800076a:	781b      	ldrb	r3, [r3, #0]
 800076c:	461a      	mov	r2, r3
 800076e:	4b06      	ldr	r3, [pc, #24]	; (8000788 <HAL_IncTick+0x24>)
 8000770:	681b      	ldr	r3, [r3, #0]
 8000772:	4413      	add	r3, r2
 8000774:	4a04      	ldr	r2, [pc, #16]	; (8000788 <HAL_IncTick+0x24>)
 8000776:	6013      	str	r3, [r2, #0]
}
 8000778:	bf00      	nop
 800077a:	46bd      	mov	sp, r7
 800077c:	f85d 7b04 	ldr.w	r7, [sp], #4
 8000780:	4770      	bx	lr
 8000782:	bf00      	nop
 8000784:	20000008 	.word	0x20000008
 8000788:	20000028 	.word	0x20000028

0800078c <HAL_GetTick>:
  * @note This function is declared as __weak to be overwritten in case of other 
  *       implementations in user file.
  * @retval tick value
  */
__weak uint32_t HAL_GetTick(void)
{
 800078c:	b480      	push	{r7}
 800078e:	af00      	add	r7, sp, #0
  return uwTick;
 8000790:	4b03      	ldr	r3, [pc, #12]	; (80007a0 <HAL_GetTick+0x14>)
 8000792:	681b      	ldr	r3, [r3, #0]
}
 8000794:	4618      	mov	r0, r3
 8000796:	46bd      	mov	sp, r7
 8000798:	f85d 7b04 	ldr.w	r7, [sp], #4
 800079c:	4770      	bx	lr
 800079e:	bf00      	nop
 80007a0:	20000028 	.word	0x20000028

080007a4 <__NVIC_SetPriorityGrouping>:
           In case of a conflict between priority grouping and available
           priority bits (__NVIC_PRIO_BITS), the smallest possible priority group is set.
  \param [in]      PriorityGroup  Priority grouping field.
 */
__STATIC_INLINE void __NVIC_SetPriorityGrouping(uint32_t PriorityGroup)
{
 80007a4:	b480      	push	{r7}
 80007a6:	b085      	sub	sp, #20
 80007a8:	af00      	add	r7, sp, #0
 80007aa:	6078      	str	r0, [r7, #4]
  uint32_t reg_value;
  uint32_t PriorityGroupTmp = (PriorityGroup & (uint32_t)0x07UL);             /* only values 0..7 are used          */
 80007ac:	687b      	ldr	r3, [r7, #4]
 80007ae:	f003 0307 	and.w	r3, r3, #7
 80007b2:	60fb      	str	r3, [r7, #12]

  reg_value  =  SCB->AIRCR;                                                   /* read old register configuration    */
 80007b4:	4b0b      	ldr	r3, [pc, #44]	; (80007e4 <__NVIC_SetPriorityGrouping+0x40>)
 80007b6:	68db      	ldr	r3, [r3, #12]
 80007b8:	60bb      	str	r3, [r7, #8]
  reg_value &= ~((uint32_t)(SCB_AIRCR_VECTKEY_Msk | SCB_AIRCR_PRIGROUP_Msk)); /* clear bits to change               */
 80007ba:	68ba      	ldr	r2, [r7, #8]
 80007bc:	f64f 03ff 	movw	r3, #63743	; 0xf8ff
 80007c0:	4013      	ands	r3, r2
 80007c2:	60bb      	str	r3, [r7, #8]
  reg_value  =  (reg_value                                   |
                ((uint32_t)0x5FAUL << SCB_AIRCR_VECTKEY_Pos) |
                (PriorityGroupTmp << SCB_AIRCR_PRIGROUP_Pos)  );              /* Insert write key and priority group */
 80007c4:	68fb      	ldr	r3, [r7, #12]
 80007c6:	021a      	lsls	r2, r3, #8
                ((uint32_t)0x5FAUL << SCB_AIRCR_VECTKEY_Pos) |
 80007c8:	68bb      	ldr	r3, [r7, #8]
 80007ca:	431a      	orrs	r2, r3
  reg_value  =  (reg_value                                   |
 80007cc:	4b06      	ldr	r3, [pc, #24]	; (80007e8 <__NVIC_SetPriorityGrouping+0x44>)
 80007ce:	4313      	orrs	r3, r2
 80007d0:	60bb      	str	r3, [r7, #8]
  SCB->AIRCR =  reg_value;
 80007d2:	4a04      	ldr	r2, [pc, #16]	; (80007e4 <__NVIC_SetPriorityGrouping+0x40>)
 80007d4:	68bb      	ldr	r3, [r7, #8]
 80007d6:	60d3      	str	r3, [r2, #12]
}
 80007d8:	bf00      	nop
 80007da:	3714      	adds	r7, #20
 80007dc:	46bd      	mov	sp, r7
 80007de:	f85d 7b04 	ldr.w	r7, [sp], #4
 80007e2:	4770      	bx	lr
 80007e4:	e000ed00 	.word	0xe000ed00
 80007e8:	05fa0000 	.word	0x05fa0000

080007ec <__NVIC_GetPriorityGrouping>:
  \brief   Get Priority Grouping
  \details Reads the priority grouping field from the NVIC Interrupt Controller.
  \return                Priority grouping field (SCB->AIRCR [10:8] PRIGROUP field).
 */
__STATIC_INLINE uint32_t __NVIC_GetPriorityGrouping(void)
{
 80007ec:	b480      	push	{r7}
 80007ee:	af00      	add	r7, sp, #0
  return ((uint32_t)((SCB->AIRCR & SCB_AIRCR_PRIGROUP_Msk) >> SCB_AIRCR_PRIGROUP_Pos));
 80007f0:	4b04      	ldr	r3, [pc, #16]	; (8000804 <__NVIC_GetPriorityGrouping+0x18>)
 80007f2:	68db      	ldr	r3, [r3, #12]
 80007f4:	0a1b      	lsrs	r3, r3, #8
 80007f6:	f003 0307 	and.w	r3, r3, #7
}
 80007fa:	4618      	mov	r0, r3
 80007fc:	46bd      	mov	sp, r7
 80007fe:	f85d 7b04 	ldr.w	r7, [sp], #4
 8000802:	4770      	bx	lr
 8000804:	e000ed00 	.word	0xe000ed00

08000808 <__NVIC_SetPriority>:
  \param [in]      IRQn  Interrupt number.
  \param [in]  priority  Priority to set.
  \note    The priority cannot be set for every processor exception.
 */
__STATIC_INLINE void __NVIC_SetPriority(IRQn_Type IRQn, uint32_t priority)
{
 8000808:	b480      	push	{r7}
 800080a:	b083      	sub	sp, #12
 800080c:	af00      	add	r7, sp, #0
 800080e:	4603      	mov	r3, r0
 8000810:	6039      	str	r1, [r7, #0]
 8000812:	71fb      	strb	r3, [r7, #7]
  if ((int32_t)(IRQn) >= 0)
 8000814:	f997 3007 	ldrsb.w	r3, [r7, #7]
 8000818:	2b00      	cmp	r3, #0
 800081a:	db0a      	blt.n	8000832 <__NVIC_SetPriority+0x2a>
  {
    NVIC->IP[((uint32_t)IRQn)]                = (uint8_t)((priority << (8U - __NVIC_PRIO_BITS)) & (uint32_t)0xFFUL);
 800081c:	683b      	ldr	r3, [r7, #0]
 800081e:	b2da      	uxtb	r2, r3
 8000820:	490c      	ldr	r1, [pc, #48]	; (8000854 <__NVIC_SetPriority+0x4c>)
 8000822:	f997 3007 	ldrsb.w	r3, [r7, #7]
 8000826:	0112      	lsls	r2, r2, #4
 8000828:	b2d2      	uxtb	r2, r2
 800082a:	440b      	add	r3, r1
 800082c:	f883 2300 	strb.w	r2, [r3, #768]	; 0x300
  }
  else
  {
    SCB->SHPR[(((uint32_t)IRQn) & 0xFUL)-4UL] = (uint8_t)((priority << (8U - __NVIC_PRIO_BITS)) & (uint32_t)0xFFUL);
  }
}
 8000830:	e00a      	b.n	8000848 <__NVIC_SetPriority+0x40>
    SCB->SHPR[(((uint32_t)IRQn) & 0xFUL)-4UL] = (uint8_t)((priority << (8U - __NVIC_PRIO_BITS)) & (uint32_t)0xFFUL);
 8000832:	683b      	ldr	r3, [r7, #0]
 8000834:	b2da      	uxtb	r2, r3
 8000836:	4908      	ldr	r1, [pc, #32]	; (8000858 <__NVIC_SetPriority+0x50>)
 8000838:	79fb      	ldrb	r3, [r7, #7]
 800083a:	f003 030f 	and.w	r3, r3, #15
 800083e:	3b04      	subs	r3, #4
 8000840:	0112      	lsls	r2, r2, #4
 8000842:	b2d2      	uxtb	r2, r2
 8000844:	440b      	add	r3, r1
 8000846:	761a      	strb	r2, [r3, #24]
}
 8000848:	bf00      	nop
 800084a:	370c      	adds	r7, #12
 800084c:	46bd      	mov	sp, r7
 800084e:	f85d 7b04 	ldr.w	r7, [sp], #4
 8000852:	4770      	bx	lr
 8000854:	e000e100 	.word	0xe000e100
 8000858:	e000ed00 	.word	0xe000ed00

0800085c <NVIC_EncodePriority>:
  \param [in]   PreemptPriority  Preemptive priority value (starting from 0).
  \param [in]       SubPriority  Subpriority value (starting from 0).
  \return                        Encoded priority. Value can be used in the function \ref NVIC_SetPriority().
 */
__STATIC_INLINE uint32_t NVIC_EncodePriority (uint32_t PriorityGroup, uint32_t PreemptPriority, uint32_t SubPriority)
{
 800085c:	b480      	push	{r7}
 800085e:	b089      	sub	sp, #36	; 0x24
 8000860:	af00      	add	r7, sp, #0
 8000862:	60f8      	str	r0, [r7, #12]
 8000864:	60b9      	str	r1, [r7, #8]
 8000866:	607a      	str	r2, [r7, #4]
  uint32_t PriorityGroupTmp = (PriorityGroup & (uint32_t)0x07UL);   /* only values 0..7 are used          */
 8000868:	68fb      	ldr	r3, [r7, #12]
 800086a:	f003 0307 	and.w	r3, r3, #7
 800086e:	61fb      	str	r3, [r7, #28]
  uint32_t PreemptPriorityBits;
  uint32_t SubPriorityBits;

  PreemptPriorityBits = ((7UL - PriorityGroupTmp) > (uint32_t)(__NVIC_PRIO_BITS)) ? (uint32_t)(__NVIC_PRIO_BITS) : (uint32_t)(7UL - PriorityGroupTmp);
 8000870:	69fb      	ldr	r3, [r7, #28]
 8000872:	f1c3 0307 	rsb	r3, r3, #7
 8000876:	2b04      	cmp	r3, #4
 8000878:	bf28      	it	cs
 800087a:	2304      	movcs	r3, #4
 800087c:	61bb      	str	r3, [r7, #24]
  SubPriorityBits     = ((PriorityGroupTmp + (uint32_t)(__NVIC_PRIO_BITS)) < (uint32_t)7UL) ? (uint32_t)0UL : (uint32_t)((PriorityGroupTmp - 7UL) + (uint32_t)(__NVIC_PRIO_BITS));
 800087e:	69fb      	ldr	r3, [r7, #28]
 8000880:	3304      	adds	r3, #4
 8000882:	2b06      	cmp	r3, #6
 8000884:	d902      	bls.n	800088c <NVIC_EncodePriority+0x30>
 8000886:	69fb      	ldr	r3, [r7, #28]
 8000888:	3b03      	subs	r3, #3
 800088a:	e000      	b.n	800088e <NVIC_EncodePriority+0x32>
 800088c:	2300      	movs	r3, #0
 800088e:	617b      	str	r3, [r7, #20]

  return (
           ((PreemptPriority & (uint32_t)((1UL << (PreemptPriorityBits)) - 1UL)) << SubPriorityBits) |
 8000890:	f04f 32ff 	mov.w	r2, #4294967295
 8000894:	69bb      	ldr	r3, [r7, #24]
 8000896:	fa02 f303 	lsl.w	r3, r2, r3
 800089a:	43da      	mvns	r2, r3
 800089c:	68bb      	ldr	r3, [r7, #8]
 800089e:	401a      	ands	r2, r3
 80008a0:	697b      	ldr	r3, [r7, #20]
 80008a2:	409a      	lsls	r2, r3
           ((SubPriority     & (uint32_t)((1UL << (SubPriorityBits    )) - 1UL)))
 80008a4:	f04f 31ff 	mov.w	r1, #4294967295
 80008a8:	697b      	ldr	r3, [r7, #20]
 80008aa:	fa01 f303 	lsl.w	r3, r1, r3
 80008ae:	43d9      	mvns	r1, r3
 80008b0:	687b      	ldr	r3, [r7, #4]
 80008b2:	400b      	ands	r3, r1
           ((PreemptPriority & (uint32_t)((1UL << (PreemptPriorityBits)) - 1UL)) << SubPriorityBits) |
 80008b4:	4313      	orrs	r3, r2
         );
}
 80008b6:	4618      	mov	r0, r3
 80008b8:	3724      	adds	r7, #36	; 0x24
 80008ba:	46bd      	mov	sp, r7
 80008bc:	f85d 7b04 	ldr.w	r7, [sp], #4
 80008c0:	4770      	bx	lr
	...

080008c4 <SysTick_Config>:
  \note    When the variable <b>__Vendor_SysTickConfig</b> is set to 1, then the
           function <b>SysTick_Config</b> is not included. In this case, the file <b><i>device</i>.h</b>
           must contain a vendor-specific implementation of this function.
 */
__STATIC_INLINE uint32_t SysTick_Config(uint32_t ticks)
{
 80008c4:	b580      	push	{r7, lr}
 80008c6:	b082      	sub	sp, #8
 80008c8:	af00      	add	r7, sp, #0
 80008ca:	6078      	str	r0, [r7, #4]
  if ((ticks - 1UL) > SysTick_LOAD_RELOAD_Msk)
 80008cc:	687b      	ldr	r3, [r7, #4]
 80008ce:	3b01      	subs	r3, #1
 80008d0:	f1b3 7f80 	cmp.w	r3, #16777216	; 0x1000000
 80008d4:	d301      	bcc.n	80008da <SysTick_Config+0x16>
  {
    return (1UL);                                                   /* Reload value impossible */
 80008d6:	2301      	movs	r3, #1
 80008d8:	e00f      	b.n	80008fa <SysTick_Config+0x36>
  }

  SysTick->LOAD  = (uint32_t)(ticks - 1UL);                         /* set reload register */
 80008da:	4a0a      	ldr	r2, [pc, #40]	; (8000904 <SysTick_Config+0x40>)
 80008dc:	687b      	ldr	r3, [r7, #4]
 80008de:	3b01      	subs	r3, #1
 80008e0:	6053      	str	r3, [r2, #4]
  NVIC_SetPriority (SysTick_IRQn, (1UL << __NVIC_PRIO_BITS) - 1UL); /* set Priority for Systick Interrupt */
 80008e2:	210f      	movs	r1, #15
 80008e4:	f04f 30ff 	mov.w	r0, #4294967295
 80008e8:	f7ff ff8e 	bl	8000808 <__NVIC_SetPriority>
  SysTick->VAL   = 0UL;                                             /* Load the SysTick Counter Value */
 80008ec:	4b05      	ldr	r3, [pc, #20]	; (8000904 <SysTick_Config+0x40>)
 80008ee:	2200      	movs	r2, #0
 80008f0:	609a      	str	r2, [r3, #8]
  SysTick->CTRL  = SysTick_CTRL_CLKSOURCE_Msk |
 80008f2:	4b04      	ldr	r3, [pc, #16]	; (8000904 <SysTick_Config+0x40>)
 80008f4:	2207      	movs	r2, #7
 80008f6:	601a      	str	r2, [r3, #0]
                   SysTick_CTRL_TICKINT_Msk   |
                   SysTick_CTRL_ENABLE_Msk;                         /* Enable SysTick IRQ and SysTick Timer */
  return (0UL);                                                     /* Function successful */
 80008f8:	2300      	movs	r3, #0
}
 80008fa:	4618      	mov	r0, r3
 80008fc:	3708      	adds	r7, #8
 80008fe:	46bd      	mov	sp, r7
 8000900:	bd80      	pop	{r7, pc}
 8000902:	bf00      	nop
 8000904:	e000e010 	.word	0xe000e010

08000908 <HAL_NVIC_SetPriorityGrouping>:
  * @note   When the NVIC_PriorityGroup_0 is selected, IRQ preemption is no more possible. 
  *         The pending IRQ priority will be managed only by the subpriority. 
  * @retval None
  */
void HAL_NVIC_SetPriorityGrouping(uint32_t PriorityGroup)
{
 8000908:	b580      	push	{r7, lr}
 800090a:	b082      	sub	sp, #8
 800090c:	af00      	add	r7, sp, #0
 800090e:	6078      	str	r0, [r7, #4]
  /* Check the parameters */
  assert_param(IS_NVIC_PRIORITY_GROUP(PriorityGroup));
  
  /* Set the PRIGROUP[10:8] bits according to the PriorityGroup parameter value */
  NVIC_SetPriorityGrouping(PriorityGroup);
 8000910:	6878      	ldr	r0, [r7, #4]
 8000912:	f7ff ff47 	bl	80007a4 <__NVIC_SetPriorityGrouping>
}
 8000916:	bf00      	nop
 8000918:	3708      	adds	r7, #8
 800091a:	46bd      	mov	sp, r7
 800091c:	bd80      	pop	{r7, pc}

0800091e <HAL_NVIC_SetPriority>:
  *         This parameter can be a value between 0 and 15
  *         A lower priority value indicates a higher priority.          
  * @retval None
  */
void HAL_NVIC_SetPriority(IRQn_Type IRQn, uint32_t PreemptPriority, uint32_t SubPriority)
{ 
 800091e:	b580      	push	{r7, lr}
 8000920:	b086      	sub	sp, #24
 8000922:	af00      	add	r7, sp, #0
 8000924:	4603      	mov	r3, r0
 8000926:	60b9      	str	r1, [r7, #8]
 8000928:	607a      	str	r2, [r7, #4]
 800092a:	73fb      	strb	r3, [r7, #15]
  uint32_t prioritygroup = 0x00;
 800092c:	2300      	movs	r3, #0
 800092e:	617b      	str	r3, [r7, #20]
  
  /* Check the parameters */
  assert_param(IS_NVIC_SUB_PRIORITY(SubPriority));
  assert_param(IS_NVIC_PREEMPTION_PRIORITY(PreemptPriority));
  
  prioritygroup = NVIC_GetPriorityGrouping();
 8000930:	f7ff ff5c 	bl	80007ec <__NVIC_GetPriorityGrouping>
 8000934:	6178      	str	r0, [r7, #20]
  
  NVIC_SetPriority(IRQn, NVIC_EncodePriority(prioritygroup, PreemptPriority, SubPriority));
 8000936:	687a      	ldr	r2, [r7, #4]
 8000938:	68b9      	ldr	r1, [r7, #8]
 800093a:	6978      	ldr	r0, [r7, #20]
 800093c:	f7ff ff8e 	bl	800085c <NVIC_EncodePriority>
 8000940:	4602      	mov	r2, r0
 8000942:	f997 300f 	ldrsb.w	r3, [r7, #15]
 8000946:	4611      	mov	r1, r2
 8000948:	4618      	mov	r0, r3
 800094a:	f7ff ff5d 	bl	8000808 <__NVIC_SetPriority>
}
 800094e:	bf00      	nop
 8000950:	3718      	adds	r7, #24
 8000952:	46bd      	mov	sp, r7
 8000954:	bd80      	pop	{r7, pc}

08000956 <HAL_SYSTICK_Config>:
  * @param  TicksNumb Specifies the ticks Number of ticks between two interrupts.
  * @retval status:  - 0  Function succeeded.
  *                  - 1  Function failed.
  */
uint32_t HAL_SYSTICK_Config(uint32_t TicksNumb)
{
 8000956:	b580      	push	{r7, lr}
 8000958:	b082      	sub	sp, #8
 800095a:	af00      	add	r7, sp, #0
 800095c:	6078      	str	r0, [r7, #4]
   return SysTick_Config(TicksNumb);
 800095e:	6878      	ldr	r0, [r7, #4]
 8000960:	f7ff ffb0 	bl	80008c4 <SysTick_Config>
 8000964:	4603      	mov	r3, r0
}
 8000966:	4618      	mov	r0, r3
 8000968:	3708      	adds	r7, #8
 800096a:	46bd      	mov	sp, r7
 800096c:	bd80      	pop	{r7, pc}
	...

08000970 <HAL_RCC_OscConfig>:
  *         supported by this function. User should request a transition to HSE Off
  *         first and then HSE On or HSE Bypass.
  * @retval HAL status
  */
HAL_StatusTypeDef HAL_RCC_OscConfig(RCC_OscInitTypeDef  *RCC_OscInitStruct)
{
 8000970:	b580      	push	{r7, lr}
 8000972:	b086      	sub	sp, #24
 8000974:	af00      	add	r7, sp, #0
 8000976:	6078      	str	r0, [r7, #4]
  uint32_t tickstart;
  uint32_t pll_config;
  FlagStatus pwrclkchanged = RESET;
 8000978:	2300      	movs	r3, #0
 800097a:	75fb      	strb	r3, [r7, #23]

  /* Check Null pointer */
  if (RCC_OscInitStruct == NULL)
 800097c:	687b      	ldr	r3, [r7, #4]
 800097e:	2b00      	cmp	r3, #0
 8000980:	d101      	bne.n	8000986 <HAL_RCC_OscConfig+0x16>
  {
    return HAL_ERROR;
 8000982:	2301      	movs	r3, #1
 8000984:	e291      	b.n	8000eaa <HAL_RCC_OscConfig+0x53a>

  /* Check the parameters */
  assert_param(IS_RCC_OSCILLATORTYPE(RCC_OscInitStruct->OscillatorType));

  /*------------------------------- HSE Configuration ------------------------*/
  if (((RCC_OscInitStruct->OscillatorType) & RCC_OSCILLATORTYPE_HSE) == RCC_OSCILLATORTYPE_HSE)
 8000986:	687b      	ldr	r3, [r7, #4]
 8000988:	681b      	ldr	r3, [r3, #0]
 800098a:	f003 0301 	and.w	r3, r3, #1
 800098e:	2b00      	cmp	r3, #0
 8000990:	f000 8087 	beq.w	8000aa2 <HAL_RCC_OscConfig+0x132>
  {
    /* Check the parameters */
    assert_param(IS_RCC_HSE(RCC_OscInitStruct->HSEState));
    /* When the HSE is used as system clock or clock source for PLL, It can not be disabled */
    if ((__HAL_RCC_GET_SYSCLK_SOURCE() == RCC_SYSCLKSOURCE_STATUS_HSE)
 8000994:	4b96      	ldr	r3, [pc, #600]	; (8000bf0 <HAL_RCC_OscConfig+0x280>)
 8000996:	689b      	ldr	r3, [r3, #8]
 8000998:	f003 030c 	and.w	r3, r3, #12
 800099c:	2b04      	cmp	r3, #4
 800099e:	d00c      	beq.n	80009ba <HAL_RCC_OscConfig+0x4a>
        || ((__HAL_RCC_GET_SYSCLK_SOURCE() == RCC_SYSCLKSOURCE_STATUS_PLLCLK) && ((RCC->PLLCFGR & RCC_PLLCFGR_PLLSRC) == RCC_PLLCFGR_PLLSRC_HSE)))
 80009a0:	4b93      	ldr	r3, [pc, #588]	; (8000bf0 <HAL_RCC_OscConfig+0x280>)
 80009a2:	689b      	ldr	r3, [r3, #8]
 80009a4:	f003 030c 	and.w	r3, r3, #12
 80009a8:	2b08      	cmp	r3, #8
 80009aa:	d112      	bne.n	80009d2 <HAL_RCC_OscConfig+0x62>
 80009ac:	4b90      	ldr	r3, [pc, #576]	; (8000bf0 <HAL_RCC_OscConfig+0x280>)
 80009ae:	685b      	ldr	r3, [r3, #4]
 80009b0:	f403 0380 	and.w	r3, r3, #4194304	; 0x400000
 80009b4:	f5b3 0f80 	cmp.w	r3, #4194304	; 0x400000
 80009b8:	d10b      	bne.n	80009d2 <HAL_RCC_OscConfig+0x62>
    {
      if ((__HAL_RCC_GET_FLAG(RCC_FLAG_HSERDY) != RESET) && (RCC_OscInitStruct->HSEState == RCC_HSE_OFF))
 80009ba:	4b8d      	ldr	r3, [pc, #564]	; (8000bf0 <HAL_RCC_OscConfig+0x280>)
 80009bc:	681b      	ldr	r3, [r3, #0]
 80009be:	f403 3300 	and.w	r3, r3, #131072	; 0x20000
 80009c2:	2b00      	cmp	r3, #0
 80009c4:	d06c      	beq.n	8000aa0 <HAL_RCC_OscConfig+0x130>
 80009c6:	687b      	ldr	r3, [r7, #4]
 80009c8:	685b      	ldr	r3, [r3, #4]
 80009ca:	2b00      	cmp	r3, #0
 80009cc:	d168      	bne.n	8000aa0 <HAL_RCC_OscConfig+0x130>
      {
        return HAL_ERROR;
 80009ce:	2301      	movs	r3, #1
 80009d0:	e26b      	b.n	8000eaa <HAL_RCC_OscConfig+0x53a>
      }
    }
    else
    {
      /* Set the new HSE configuration ---------------------------------------*/
      __HAL_RCC_HSE_CONFIG(RCC_OscInitStruct->HSEState);
 80009d2:	687b      	ldr	r3, [r7, #4]
 80009d4:	685b      	ldr	r3, [r3, #4]
 80009d6:	f5b3 3f80 	cmp.w	r3, #65536	; 0x10000
 80009da:	d106      	bne.n	80009ea <HAL_RCC_OscConfig+0x7a>
 80009dc:	4b84      	ldr	r3, [pc, #528]	; (8000bf0 <HAL_RCC_OscConfig+0x280>)
 80009de:	681b      	ldr	r3, [r3, #0]
 80009e0:	4a83      	ldr	r2, [pc, #524]	; (8000bf0 <HAL_RCC_OscConfig+0x280>)
 80009e2:	f443 3380 	orr.w	r3, r3, #65536	; 0x10000
 80009e6:	6013      	str	r3, [r2, #0]
 80009e8:	e02e      	b.n	8000a48 <HAL_RCC_OscConfig+0xd8>
 80009ea:	687b      	ldr	r3, [r7, #4]
 80009ec:	685b      	ldr	r3, [r3, #4]
 80009ee:	2b00      	cmp	r3, #0
 80009f0:	d10c      	bne.n	8000a0c <HAL_RCC_OscConfig+0x9c>
 80009f2:	4b7f      	ldr	r3, [pc, #508]	; (8000bf0 <HAL_RCC_OscConfig+0x280>)
 80009f4:	681b      	ldr	r3, [r3, #0]
 80009f6:	4a7e      	ldr	r2, [pc, #504]	; (8000bf0 <HAL_RCC_OscConfig+0x280>)
 80009f8:	f423 3380 	bic.w	r3, r3, #65536	; 0x10000
 80009fc:	6013      	str	r3, [r2, #0]
 80009fe:	4b7c      	ldr	r3, [pc, #496]	; (8000bf0 <HAL_RCC_OscConfig+0x280>)
 8000a00:	681b      	ldr	r3, [r3, #0]
 8000a02:	4a7b      	ldr	r2, [pc, #492]	; (8000bf0 <HAL_RCC_OscConfig+0x280>)
 8000a04:	f423 2380 	bic.w	r3, r3, #262144	; 0x40000
 8000a08:	6013      	str	r3, [r2, #0]
 8000a0a:	e01d      	b.n	8000a48 <HAL_RCC_OscConfig+0xd8>
 8000a0c:	687b      	ldr	r3, [r7, #4]
 8000a0e:	685b      	ldr	r3, [r3, #4]
 8000a10:	f5b3 2fa0 	cmp.w	r3, #327680	; 0x50000
 8000a14:	d10c      	bne.n	8000a30 <HAL_RCC_OscConfig+0xc0>
 8000a16:	4b76      	ldr	r3, [pc, #472]	; (8000bf0 <HAL_RCC_OscConfig+0x280>)
 8000a18:	681b      	ldr	r3, [r3, #0]
 8000a1a:	4a75      	ldr	r2, [pc, #468]	; (8000bf0 <HAL_RCC_OscConfig+0x280>)
 8000a1c:	f443 2380 	orr.w	r3, r3, #262144	; 0x40000
 8000a20:	6013      	str	r3, [r2, #0]
 8000a22:	4b73      	ldr	r3, [pc, #460]	; (8000bf0 <HAL_RCC_OscConfig+0x280>)
 8000a24:	681b      	ldr	r3, [r3, #0]
 8000a26:	4a72      	ldr	r2, [pc, #456]	; (8000bf0 <HAL_RCC_OscConfig+0x280>)
 8000a28:	f443 3380 	orr.w	r3, r3, #65536	; 0x10000
 8000a2c:	6013      	str	r3, [r2, #0]
 8000a2e:	e00b      	b.n	8000a48 <HAL_RCC_OscConfig+0xd8>
 8000a30:	4b6f      	ldr	r3, [pc, #444]	; (8000bf0 <HAL_RCC_OscConfig+0x280>)
 8000a32:	681b      	ldr	r3, [r3, #0]
 8000a34:	4a6e      	ldr	r2, [pc, #440]	; (8000bf0 <HAL_RCC_OscConfig+0x280>)
 8000a36:	f423 3380 	bic.w	r3, r3, #65536	; 0x10000
 8000a3a:	6013      	str	r3, [r2, #0]
 8000a3c:	4b6c      	ldr	r3, [pc, #432]	; (8000bf0 <HAL_RCC_OscConfig+0x280>)
 8000a3e:	681b      	ldr	r3, [r3, #0]
 8000a40:	4a6b      	ldr	r2, [pc, #428]	; (8000bf0 <HAL_RCC_OscConfig+0x280>)
 8000a42:	f423 2380 	bic.w	r3, r3, #262144	; 0x40000
 8000a46:	6013      	str	r3, [r2, #0]

      /* Check the HSE State */
      if (RCC_OscInitStruct->HSEState != RCC_HSE_OFF)
 8000a48:	687b      	ldr	r3, [r7, #4]
 8000a4a:	685b      	ldr	r3, [r3, #4]
 8000a4c:	2b00      	cmp	r3, #0
 8000a4e:	d013      	beq.n	8000a78 <HAL_RCC_OscConfig+0x108>
      {
        /* Get Start Tick*/
        tickstart = HAL_GetTick();
 8000a50:	f7ff fe9c 	bl	800078c <HAL_GetTick>
 8000a54:	6138      	str	r0, [r7, #16]

        /* Wait till HSE is ready */
        while (__HAL_RCC_GET_FLAG(RCC_FLAG_HSERDY) == RESET)
 8000a56:	e008      	b.n	8000a6a <HAL_RCC_OscConfig+0xfa>
        {
          if ((HAL_GetTick() - tickstart) > HSE_TIMEOUT_VALUE)
 8000a58:	f7ff fe98 	bl	800078c <HAL_GetTick>
 8000a5c:	4602      	mov	r2, r0
 8000a5e:	693b      	ldr	r3, [r7, #16]
 8000a60:	1ad3      	subs	r3, r2, r3
 8000a62:	2b64      	cmp	r3, #100	; 0x64
 8000a64:	d901      	bls.n	8000a6a <HAL_RCC_OscConfig+0xfa>
          {
            return HAL_TIMEOUT;
 8000a66:	2303      	movs	r3, #3
 8000a68:	e21f      	b.n	8000eaa <HAL_RCC_OscConfig+0x53a>
        while (__HAL_RCC_GET_FLAG(RCC_FLAG_HSERDY) == RESET)
 8000a6a:	4b61      	ldr	r3, [pc, #388]	; (8000bf0 <HAL_RCC_OscConfig+0x280>)
 8000a6c:	681b      	ldr	r3, [r3, #0]
 8000a6e:	f403 3300 	and.w	r3, r3, #131072	; 0x20000
 8000a72:	2b00      	cmp	r3, #0
 8000a74:	d0f0      	beq.n	8000a58 <HAL_RCC_OscConfig+0xe8>
 8000a76:	e014      	b.n	8000aa2 <HAL_RCC_OscConfig+0x132>
        }
      }
      else
      {
        /* Get Start Tick*/
        tickstart = HAL_GetTick();
 8000a78:	f7ff fe88 	bl	800078c <HAL_GetTick>
 8000a7c:	6138      	str	r0, [r7, #16]

        /* Wait till HSE is bypassed or disabled */
        while (__HAL_RCC_GET_FLAG(RCC_FLAG_HSERDY) != RESET)
 8000a7e:	e008      	b.n	8000a92 <HAL_RCC_OscConfig+0x122>
        {
          if ((HAL_GetTick() - tickstart) > HSE_TIMEOUT_VALUE)
 8000a80:	f7ff fe84 	bl	800078c <HAL_GetTick>
 8000a84:	4602      	mov	r2, r0
 8000a86:	693b      	ldr	r3, [r7, #16]
 8000a88:	1ad3      	subs	r3, r2, r3
 8000a8a:	2b64      	cmp	r3, #100	; 0x64
 8000a8c:	d901      	bls.n	8000a92 <HAL_RCC_OscConfig+0x122>
          {
            return HAL_TIMEOUT;
 8000a8e:	2303      	movs	r3, #3
 8000a90:	e20b      	b.n	8000eaa <HAL_RCC_OscConfig+0x53a>
        while (__HAL_RCC_GET_FLAG(RCC_FLAG_HSERDY) != RESET)
 8000a92:	4b57      	ldr	r3, [pc, #348]	; (8000bf0 <HAL_RCC_OscConfig+0x280>)
 8000a94:	681b      	ldr	r3, [r3, #0]
 8000a96:	f403 3300 	and.w	r3, r3, #131072	; 0x20000
 8000a9a:	2b00      	cmp	r3, #0
 8000a9c:	d1f0      	bne.n	8000a80 <HAL_RCC_OscConfig+0x110>
 8000a9e:	e000      	b.n	8000aa2 <HAL_RCC_OscConfig+0x132>
      if ((__HAL_RCC_GET_FLAG(RCC_FLAG_HSERDY) != RESET) && (RCC_OscInitStruct->HSEState == RCC_HSE_OFF))
 8000aa0:	bf00      	nop
        }
      }
    }
  }
  /*----------------------------- HSI Configuration --------------------------*/
  if (((RCC_OscInitStruct->OscillatorType) & RCC_OSCILLATORTYPE_HSI) == RCC_OSCILLATORTYPE_HSI)
 8000aa2:	687b      	ldr	r3, [r7, #4]
 8000aa4:	681b      	ldr	r3, [r3, #0]
 8000aa6:	f003 0302 	and.w	r3, r3, #2
 8000aaa:	2b00      	cmp	r3, #0
 8000aac:	d069      	beq.n	8000b82 <HAL_RCC_OscConfig+0x212>
    /* Check the parameters */
    assert_param(IS_RCC_HSI(RCC_OscInitStruct->HSIState));
    assert_param(IS_RCC_CALIBRATION_VALUE(RCC_OscInitStruct->HSICalibrationValue));

    /* Check if HSI is used as system clock or as PLL source when PLL is selected as system clock */
    if ((__HAL_RCC_GET_SYSCLK_SOURCE() == RCC_SYSCLKSOURCE_STATUS_HSI)
 8000aae:	4b50      	ldr	r3, [pc, #320]	; (8000bf0 <HAL_RCC_OscConfig+0x280>)
 8000ab0:	689b      	ldr	r3, [r3, #8]
 8000ab2:	f003 030c 	and.w	r3, r3, #12
 8000ab6:	2b00      	cmp	r3, #0
 8000ab8:	d00b      	beq.n	8000ad2 <HAL_RCC_OscConfig+0x162>
        || ((__HAL_RCC_GET_SYSCLK_SOURCE() == RCC_SYSCLKSOURCE_STATUS_PLLCLK) && ((RCC->PLLCFGR & RCC_PLLCFGR_PLLSRC) == RCC_PLLCFGR_PLLSRC_HSI)))
 8000aba:	4b4d      	ldr	r3, [pc, #308]	; (8000bf0 <HAL_RCC_OscConfig+0x280>)
 8000abc:	689b      	ldr	r3, [r3, #8]
 8000abe:	f003 030c 	and.w	r3, r3, #12
 8000ac2:	2b08      	cmp	r3, #8
 8000ac4:	d11c      	bne.n	8000b00 <HAL_RCC_OscConfig+0x190>
 8000ac6:	4b4a      	ldr	r3, [pc, #296]	; (8000bf0 <HAL_RCC_OscConfig+0x280>)
 8000ac8:	685b      	ldr	r3, [r3, #4]
 8000aca:	f403 0380 	and.w	r3, r3, #4194304	; 0x400000
 8000ace:	2b00      	cmp	r3, #0
 8000ad0:	d116      	bne.n	8000b00 <HAL_RCC_OscConfig+0x190>
    {
      /* When HSI is used as system clock it will not disabled */
      if ((__HAL_RCC_GET_FLAG(RCC_FLAG_HSIRDY) != RESET) && (RCC_OscInitStruct->HSIState != RCC_HSI_ON))
 8000ad2:	4b47      	ldr	r3, [pc, #284]	; (8000bf0 <HAL_RCC_OscConfig+0x280>)
 8000ad4:	681b      	ldr	r3, [r3, #0]
 8000ad6:	f003 0302 	and.w	r3, r3, #2
 8000ada:	2b00      	cmp	r3, #0
 8000adc:	d005      	beq.n	8000aea <HAL_RCC_OscConfig+0x17a>
 8000ade:	687b      	ldr	r3, [r7, #4]
 8000ae0:	68db      	ldr	r3, [r3, #12]
 8000ae2:	2b01      	cmp	r3, #1
 8000ae4:	d001      	beq.n	8000aea <HAL_RCC_OscConfig+0x17a>
      {
        return HAL_ERROR;
 8000ae6:	2301      	movs	r3, #1
 8000ae8:	e1df      	b.n	8000eaa <HAL_RCC_OscConfig+0x53a>
      }
      /* Otherwise, just the calibration is allowed */
      else
      {
        /* Adjusts the Internal High Speed oscillator (HSI) calibration value.*/
        __HAL_RCC_HSI_CALIBRATIONVALUE_ADJUST(RCC_OscInitStruct->HSICalibrationValue);
 8000aea:	4b41      	ldr	r3, [pc, #260]	; (8000bf0 <HAL_RCC_OscConfig+0x280>)
 8000aec:	681b      	ldr	r3, [r3, #0]
 8000aee:	f023 02f8 	bic.w	r2, r3, #248	; 0xf8
 8000af2:	687b      	ldr	r3, [r7, #4]
 8000af4:	691b      	ldr	r3, [r3, #16]
 8000af6:	00db      	lsls	r3, r3, #3
 8000af8:	493d      	ldr	r1, [pc, #244]	; (8000bf0 <HAL_RCC_OscConfig+0x280>)
 8000afa:	4313      	orrs	r3, r2
 8000afc:	600b      	str	r3, [r1, #0]
      if ((__HAL_RCC_GET_FLAG(RCC_FLAG_HSIRDY) != RESET) && (RCC_OscInitStruct->HSIState != RCC_HSI_ON))
 8000afe:	e040      	b.n	8000b82 <HAL_RCC_OscConfig+0x212>
      }
    }
    else
    {
      /* Check the HSI State */
      if ((RCC_OscInitStruct->HSIState) != RCC_HSI_OFF)
 8000b00:	687b      	ldr	r3, [r7, #4]
 8000b02:	68db      	ldr	r3, [r3, #12]
 8000b04:	2b00      	cmp	r3, #0
 8000b06:	d023      	beq.n	8000b50 <HAL_RCC_OscConfig+0x1e0>
      {
        /* Enable the Internal High Speed oscillator (HSI). */
        __HAL_RCC_HSI_ENABLE();
 8000b08:	4b39      	ldr	r3, [pc, #228]	; (8000bf0 <HAL_RCC_OscConfig+0x280>)
 8000b0a:	681b      	ldr	r3, [r3, #0]
 8000b0c:	4a38      	ldr	r2, [pc, #224]	; (8000bf0 <HAL_RCC_OscConfig+0x280>)
 8000b0e:	f043 0301 	orr.w	r3, r3, #1
 8000b12:	6013      	str	r3, [r2, #0]

        /* Get Start Tick*/
        tickstart = HAL_GetTick();
 8000b14:	f7ff fe3a 	bl	800078c <HAL_GetTick>
 8000b18:	6138      	str	r0, [r7, #16]

        /* Wait till HSI is ready */
        while (__HAL_RCC_GET_FLAG(RCC_FLAG_HSIRDY) == RESET)
 8000b1a:	e008      	b.n	8000b2e <HAL_RCC_OscConfig+0x1be>
        {
          if ((HAL_GetTick() - tickstart) > HSI_TIMEOUT_VALUE)
 8000b1c:	f7ff fe36 	bl	800078c <HAL_GetTick>
 8000b20:	4602      	mov	r2, r0
 8000b22:	693b      	ldr	r3, [r7, #16]
 8000b24:	1ad3      	subs	r3, r2, r3
 8000b26:	2b02      	cmp	r3, #2
 8000b28:	d901      	bls.n	8000b2e <HAL_RCC_OscConfig+0x1be>
          {
            return HAL_TIMEOUT;
 8000b2a:	2303      	movs	r3, #3
 8000b2c:	e1bd      	b.n	8000eaa <HAL_RCC_OscConfig+0x53a>
        while (__HAL_RCC_GET_FLAG(RCC_FLAG_HSIRDY) == RESET)
 8000b2e:	4b30      	ldr	r3, [pc, #192]	; (8000bf0 <HAL_RCC_OscConfig+0x280>)
 8000b30:	681b      	ldr	r3, [r3, #0]
 8000b32:	f003 0302 	and.w	r3, r3, #2
 8000b36:	2b00      	cmp	r3, #0
 8000b38:	d0f0      	beq.n	8000b1c <HAL_RCC_OscConfig+0x1ac>
          }
        }

        /* Adjusts the Internal High Speed oscillator (HSI) calibration value.*/
        __HAL_RCC_HSI_CALIBRATIONVALUE_ADJUST(RCC_OscInitStruct->HSICalibrationValue);
 8000b3a:	4b2d      	ldr	r3, [pc, #180]	; (8000bf0 <HAL_RCC_OscConfig+0x280>)
 8000b3c:	681b      	ldr	r3, [r3, #0]
 8000b3e:	f023 02f8 	bic.w	r2, r3, #248	; 0xf8
 8000b42:	687b      	ldr	r3, [r7, #4]
 8000b44:	691b      	ldr	r3, [r3, #16]
 8000b46:	00db      	lsls	r3, r3, #3
 8000b48:	4929      	ldr	r1, [pc, #164]	; (8000bf0 <HAL_RCC_OscConfig+0x280>)
 8000b4a:	4313      	orrs	r3, r2
 8000b4c:	600b      	str	r3, [r1, #0]
 8000b4e:	e018      	b.n	8000b82 <HAL_RCC_OscConfig+0x212>
      }
      else
      {
        /* Disable the Internal High Speed oscillator (HSI). */
        __HAL_RCC_HSI_DISABLE();
 8000b50:	4b27      	ldr	r3, [pc, #156]	; (8000bf0 <HAL_RCC_OscConfig+0x280>)
 8000b52:	681b      	ldr	r3, [r3, #0]
 8000b54:	4a26      	ldr	r2, [pc, #152]	; (8000bf0 <HAL_RCC_OscConfig+0x280>)
 8000b56:	f023 0301 	bic.w	r3, r3, #1
 8000b5a:	6013      	str	r3, [r2, #0]

        /* Get Start Tick*/
        tickstart = HAL_GetTick();
 8000b5c:	f7ff fe16 	bl	800078c <HAL_GetTick>
 8000b60:	6138      	str	r0, [r7, #16]

        /* Wait till HSI is ready */
        while (__HAL_RCC_GET_FLAG(RCC_FLAG_HSIRDY) != RESET)
 8000b62:	e008      	b.n	8000b76 <HAL_RCC_OscConfig+0x206>
        {
          if ((HAL_GetTick() - tickstart) > HSI_TIMEOUT_VALUE)
 8000b64:	f7ff fe12 	bl	800078c <HAL_GetTick>
 8000b68:	4602      	mov	r2, r0
 8000b6a:	693b      	ldr	r3, [r7, #16]
 8000b6c:	1ad3      	subs	r3, r2, r3
 8000b6e:	2b02      	cmp	r3, #2
 8000b70:	d901      	bls.n	8000b76 <HAL_RCC_OscConfig+0x206>
          {
            return HAL_TIMEOUT;
 8000b72:	2303      	movs	r3, #3
 8000b74:	e199      	b.n	8000eaa <HAL_RCC_OscConfig+0x53a>
        while (__HAL_RCC_GET_FLAG(RCC_FLAG_HSIRDY) != RESET)
 8000b76:	4b1e      	ldr	r3, [pc, #120]	; (8000bf0 <HAL_RCC_OscConfig+0x280>)
 8000b78:	681b      	ldr	r3, [r3, #0]
 8000b7a:	f003 0302 	and.w	r3, r3, #2
 8000b7e:	2b00      	cmp	r3, #0
 8000b80:	d1f0      	bne.n	8000b64 <HAL_RCC_OscConfig+0x1f4>
        }
      }
    }
  }
  /*------------------------------ LSI Configuration -------------------------*/
  if (((RCC_OscInitStruct->OscillatorType) & RCC_OSCILLATORTYPE_LSI) == RCC_OSCILLATORTYPE_LSI)
 8000b82:	687b      	ldr	r3, [r7, #4]
 8000b84:	681b      	ldr	r3, [r3, #0]
 8000b86:	f003 0308 	and.w	r3, r3, #8
 8000b8a:	2b00      	cmp	r3, #0
 8000b8c:	d038      	beq.n	8000c00 <HAL_RCC_OscConfig+0x290>
  {
    /* Check the parameters */
    assert_param(IS_RCC_LSI(RCC_OscInitStruct->LSIState));

    /* Check the LSI State */
    if ((RCC_OscInitStruct->LSIState) != RCC_LSI_OFF)
 8000b8e:	687b      	ldr	r3, [r7, #4]
 8000b90:	695b      	ldr	r3, [r3, #20]
 8000b92:	2b00      	cmp	r3, #0
 8000b94:	d019      	beq.n	8000bca <HAL_RCC_OscConfig+0x25a>
    {
      /* Enable the Internal Low Speed oscillator (LSI). */
      __HAL_RCC_LSI_ENABLE();
 8000b96:	4b16      	ldr	r3, [pc, #88]	; (8000bf0 <HAL_RCC_OscConfig+0x280>)
 8000b98:	6f5b      	ldr	r3, [r3, #116]	; 0x74
 8000b9a:	4a15      	ldr	r2, [pc, #84]	; (8000bf0 <HAL_RCC_OscConfig+0x280>)
 8000b9c:	f043 0301 	orr.w	r3, r3, #1
 8000ba0:	6753      	str	r3, [r2, #116]	; 0x74

      /* Get Start Tick*/
      tickstart = HAL_GetTick();
 8000ba2:	f7ff fdf3 	bl	800078c <HAL_GetTick>
 8000ba6:	6138      	str	r0, [r7, #16]

      /* Wait till LSI is ready */
      while (__HAL_RCC_GET_FLAG(RCC_FLAG_LSIRDY) == RESET)
 8000ba8:	e008      	b.n	8000bbc <HAL_RCC_OscConfig+0x24c>
      {
        if ((HAL_GetTick() - tickstart) > LSI_TIMEOUT_VALUE)
 8000baa:	f7ff fdef 	bl	800078c <HAL_GetTick>
 8000bae:	4602      	mov	r2, r0
 8000bb0:	693b      	ldr	r3, [r7, #16]
 8000bb2:	1ad3      	subs	r3, r2, r3
 8000bb4:	2b02      	cmp	r3, #2
 8000bb6:	d901      	bls.n	8000bbc <HAL_RCC_OscConfig+0x24c>
        {
          return HAL_TIMEOUT;
 8000bb8:	2303      	movs	r3, #3
 8000bba:	e176      	b.n	8000eaa <HAL_RCC_OscConfig+0x53a>
      while (__HAL_RCC_GET_FLAG(RCC_FLAG_LSIRDY) == RESET)
 8000bbc:	4b0c      	ldr	r3, [pc, #48]	; (8000bf0 <HAL_RCC_OscConfig+0x280>)
 8000bbe:	6f5b      	ldr	r3, [r3, #116]	; 0x74
 8000bc0:	f003 0302 	and.w	r3, r3, #2
 8000bc4:	2b00      	cmp	r3, #0
 8000bc6:	d0f0      	beq.n	8000baa <HAL_RCC_OscConfig+0x23a>
 8000bc8:	e01a      	b.n	8000c00 <HAL_RCC_OscConfig+0x290>
      }
    }
    else
    {
      /* Disable the Internal Low Speed oscillator (LSI). */
      __HAL_RCC_LSI_DISABLE();
 8000bca:	4b09      	ldr	r3, [pc, #36]	; (8000bf0 <HAL_RCC_OscConfig+0x280>)
 8000bcc:	6f5b      	ldr	r3, [r3, #116]	; 0x74
 8000bce:	4a08      	ldr	r2, [pc, #32]	; (8000bf0 <HAL_RCC_OscConfig+0x280>)
 8000bd0:	f023 0301 	bic.w	r3, r3, #1
 8000bd4:	6753      	str	r3, [r2, #116]	; 0x74

      /* Get Start Tick*/
      tickstart = HAL_GetTick();
 8000bd6:	f7ff fdd9 	bl	800078c <HAL_GetTick>
 8000bda:	6138      	str	r0, [r7, #16]

      /* Wait till LSI is ready */
      while (__HAL_RCC_GET_FLAG(RCC_FLAG_LSIRDY) != RESET)
 8000bdc:	e00a      	b.n	8000bf4 <HAL_RCC_OscConfig+0x284>
      {
        if ((HAL_GetTick() - tickstart) > LSI_TIMEOUT_VALUE)
 8000bde:	f7ff fdd5 	bl	800078c <HAL_GetTick>
 8000be2:	4602      	mov	r2, r0
 8000be4:	693b      	ldr	r3, [r7, #16]
 8000be6:	1ad3      	subs	r3, r2, r3
 8000be8:	2b02      	cmp	r3, #2
 8000bea:	d903      	bls.n	8000bf4 <HAL_RCC_OscConfig+0x284>
        {
          return HAL_TIMEOUT;
 8000bec:	2303      	movs	r3, #3
 8000bee:	e15c      	b.n	8000eaa <HAL_RCC_OscConfig+0x53a>
 8000bf0:	40023800 	.word	0x40023800
      while (__HAL_RCC_GET_FLAG(RCC_FLAG_LSIRDY) != RESET)
 8000bf4:	4b91      	ldr	r3, [pc, #580]	; (8000e3c <HAL_RCC_OscConfig+0x4cc>)
 8000bf6:	6f5b      	ldr	r3, [r3, #116]	; 0x74
 8000bf8:	f003 0302 	and.w	r3, r3, #2
 8000bfc:	2b00      	cmp	r3, #0
 8000bfe:	d1ee      	bne.n	8000bde <HAL_RCC_OscConfig+0x26e>
        }
      }
    }
  }
  /*------------------------------ LSE Configuration -------------------------*/
  if (((RCC_OscInitStruct->OscillatorType) & RCC_OSCILLATORTYPE_LSE) == RCC_OSCILLATORTYPE_LSE)
 8000c00:	687b      	ldr	r3, [r7, #4]
 8000c02:	681b      	ldr	r3, [r3, #0]
 8000c04:	f003 0304 	and.w	r3, r3, #4
 8000c08:	2b00      	cmp	r3, #0
 8000c0a:	f000 80a4 	beq.w	8000d56 <HAL_RCC_OscConfig+0x3e6>
    /* Check the parameters */
    assert_param(IS_RCC_LSE(RCC_OscInitStruct->LSEState));

    /* Update LSE configuration in Backup Domain control register    */
    /* Requires to enable write access to Backup Domain of necessary */
    if (__HAL_RCC_PWR_IS_CLK_DISABLED())
 8000c0e:	4b8b      	ldr	r3, [pc, #556]	; (8000e3c <HAL_RCC_OscConfig+0x4cc>)
 8000c10:	6c1b      	ldr	r3, [r3, #64]	; 0x40
 8000c12:	f003 5380 	and.w	r3, r3, #268435456	; 0x10000000
 8000c16:	2b00      	cmp	r3, #0
 8000c18:	d10d      	bne.n	8000c36 <HAL_RCC_OscConfig+0x2c6>
    {
      /* Enable Power Clock*/
      __HAL_RCC_PWR_CLK_ENABLE();
 8000c1a:	4b88      	ldr	r3, [pc, #544]	; (8000e3c <HAL_RCC_OscConfig+0x4cc>)
 8000c1c:	6c1b      	ldr	r3, [r3, #64]	; 0x40
 8000c1e:	4a87      	ldr	r2, [pc, #540]	; (8000e3c <HAL_RCC_OscConfig+0x4cc>)
 8000c20:	f043 5380 	orr.w	r3, r3, #268435456	; 0x10000000
 8000c24:	6413      	str	r3, [r2, #64]	; 0x40
 8000c26:	4b85      	ldr	r3, [pc, #532]	; (8000e3c <HAL_RCC_OscConfig+0x4cc>)
 8000c28:	6c1b      	ldr	r3, [r3, #64]	; 0x40
 8000c2a:	f003 5380 	and.w	r3, r3, #268435456	; 0x10000000
 8000c2e:	60bb      	str	r3, [r7, #8]
 8000c30:	68bb      	ldr	r3, [r7, #8]
      pwrclkchanged = SET;
 8000c32:	2301      	movs	r3, #1
 8000c34:	75fb      	strb	r3, [r7, #23]
    }

    if (HAL_IS_BIT_CLR(PWR->CR1, PWR_CR1_DBP))
 8000c36:	4b82      	ldr	r3, [pc, #520]	; (8000e40 <HAL_RCC_OscConfig+0x4d0>)
 8000c38:	681b      	ldr	r3, [r3, #0]
 8000c3a:	f403 7380 	and.w	r3, r3, #256	; 0x100
 8000c3e:	2b00      	cmp	r3, #0
 8000c40:	d118      	bne.n	8000c74 <HAL_RCC_OscConfig+0x304>
    {
      /* Enable write access to Backup domain */
      PWR->CR1 |= PWR_CR1_DBP;
 8000c42:	4b7f      	ldr	r3, [pc, #508]	; (8000e40 <HAL_RCC_OscConfig+0x4d0>)
 8000c44:	681b      	ldr	r3, [r3, #0]
 8000c46:	4a7e      	ldr	r2, [pc, #504]	; (8000e40 <HAL_RCC_OscConfig+0x4d0>)
 8000c48:	f443 7380 	orr.w	r3, r3, #256	; 0x100
 8000c4c:	6013      	str	r3, [r2, #0]

      /* Wait for Backup domain Write protection disable */
      tickstart = HAL_GetTick();
 8000c4e:	f7ff fd9d 	bl	800078c <HAL_GetTick>
 8000c52:	6138      	str	r0, [r7, #16]

      while (HAL_IS_BIT_CLR(PWR->CR1, PWR_CR1_DBP))
 8000c54:	e008      	b.n	8000c68 <HAL_RCC_OscConfig+0x2f8>
      {
        if ((HAL_GetTick() - tickstart) > RCC_DBP_TIMEOUT_VALUE)
 8000c56:	f7ff fd99 	bl	800078c <HAL_GetTick>
 8000c5a:	4602      	mov	r2, r0
 8000c5c:	693b      	ldr	r3, [r7, #16]
 8000c5e:	1ad3      	subs	r3, r2, r3
 8000c60:	2b64      	cmp	r3, #100	; 0x64
 8000c62:	d901      	bls.n	8000c68 <HAL_RCC_OscConfig+0x2f8>
        {
          return HAL_TIMEOUT;
 8000c64:	2303      	movs	r3, #3
 8000c66:	e120      	b.n	8000eaa <HAL_RCC_OscConfig+0x53a>
      while (HAL_IS_BIT_CLR(PWR->CR1, PWR_CR1_DBP))
 8000c68:	4b75      	ldr	r3, [pc, #468]	; (8000e40 <HAL_RCC_OscConfig+0x4d0>)
 8000c6a:	681b      	ldr	r3, [r3, #0]
 8000c6c:	f403 7380 	and.w	r3, r3, #256	; 0x100
 8000c70:	2b00      	cmp	r3, #0
 8000c72:	d0f0      	beq.n	8000c56 <HAL_RCC_OscConfig+0x2e6>
        }
      }
    }

    /* Set the new LSE configuration -----------------------------------------*/
    __HAL_RCC_LSE_CONFIG(RCC_OscInitStruct->LSEState);
 8000c74:	687b      	ldr	r3, [r7, #4]
 8000c76:	689b      	ldr	r3, [r3, #8]
 8000c78:	2b01      	cmp	r3, #1
 8000c7a:	d106      	bne.n	8000c8a <HAL_RCC_OscConfig+0x31a>
 8000c7c:	4b6f      	ldr	r3, [pc, #444]	; (8000e3c <HAL_RCC_OscConfig+0x4cc>)
 8000c7e:	6f1b      	ldr	r3, [r3, #112]	; 0x70
 8000c80:	4a6e      	ldr	r2, [pc, #440]	; (8000e3c <HAL_RCC_OscConfig+0x4cc>)
 8000c82:	f043 0301 	orr.w	r3, r3, #1
 8000c86:	6713      	str	r3, [r2, #112]	; 0x70
 8000c88:	e02d      	b.n	8000ce6 <HAL_RCC_OscConfig+0x376>
 8000c8a:	687b      	ldr	r3, [r7, #4]
 8000c8c:	689b      	ldr	r3, [r3, #8]
 8000c8e:	2b00      	cmp	r3, #0
 8000c90:	d10c      	bne.n	8000cac <HAL_RCC_OscConfig+0x33c>
 8000c92:	4b6a      	ldr	r3, [pc, #424]	; (8000e3c <HAL_RCC_OscConfig+0x4cc>)
 8000c94:	6f1b      	ldr	r3, [r3, #112]	; 0x70
 8000c96:	4a69      	ldr	r2, [pc, #420]	; (8000e3c <HAL_RCC_OscConfig+0x4cc>)
 8000c98:	f023 0301 	bic.w	r3, r3, #1
 8000c9c:	6713      	str	r3, [r2, #112]	; 0x70
 8000c9e:	4b67      	ldr	r3, [pc, #412]	; (8000e3c <HAL_RCC_OscConfig+0x4cc>)
 8000ca0:	6f1b      	ldr	r3, [r3, #112]	; 0x70
 8000ca2:	4a66      	ldr	r2, [pc, #408]	; (8000e3c <HAL_RCC_OscConfig+0x4cc>)
 8000ca4:	f023 0304 	bic.w	r3, r3, #4
 8000ca8:	6713      	str	r3, [r2, #112]	; 0x70
 8000caa:	e01c      	b.n	8000ce6 <HAL_RCC_OscConfig+0x376>
 8000cac:	687b      	ldr	r3, [r7, #4]
 8000cae:	689b      	ldr	r3, [r3, #8]
 8000cb0:	2b05      	cmp	r3, #5
 8000cb2:	d10c      	bne.n	8000cce <HAL_RCC_OscConfig+0x35e>
 8000cb4:	4b61      	ldr	r3, [pc, #388]	; (8000e3c <HAL_RCC_OscConfig+0x4cc>)
 8000cb6:	6f1b      	ldr	r3, [r3, #112]	; 0x70
 8000cb8:	4a60      	ldr	r2, [pc, #384]	; (8000e3c <HAL_RCC_OscConfig+0x4cc>)
 8000cba:	f043 0304 	orr.w	r3, r3, #4
 8000cbe:	6713      	str	r3, [r2, #112]	; 0x70
 8000cc0:	4b5e      	ldr	r3, [pc, #376]	; (8000e3c <HAL_RCC_OscConfig+0x4cc>)
 8000cc2:	6f1b      	ldr	r3, [r3, #112]	; 0x70
 8000cc4:	4a5d      	ldr	r2, [pc, #372]	; (8000e3c <HAL_RCC_OscConfig+0x4cc>)
 8000cc6:	f043 0301 	orr.w	r3, r3, #1
 8000cca:	6713      	str	r3, [r2, #112]	; 0x70
 8000ccc:	e00b      	b.n	8000ce6 <HAL_RCC_OscConfig+0x376>
 8000cce:	4b5b      	ldr	r3, [pc, #364]	; (8000e3c <HAL_RCC_OscConfig+0x4cc>)
 8000cd0:	6f1b      	ldr	r3, [r3, #112]	; 0x70
 8000cd2:	4a5a      	ldr	r2, [pc, #360]	; (8000e3c <HAL_RCC_OscConfig+0x4cc>)
 8000cd4:	f023 0301 	bic.w	r3, r3, #1
 8000cd8:	6713      	str	r3, [r2, #112]	; 0x70
 8000cda:	4b58      	ldr	r3, [pc, #352]	; (8000e3c <HAL_RCC_OscConfig+0x4cc>)
 8000cdc:	6f1b      	ldr	r3, [r3, #112]	; 0x70
 8000cde:	4a57      	ldr	r2, [pc, #348]	; (8000e3c <HAL_RCC_OscConfig+0x4cc>)
 8000ce0:	f023 0304 	bic.w	r3, r3, #4
 8000ce4:	6713      	str	r3, [r2, #112]	; 0x70
    /* Check the LSE State */
    if ((RCC_OscInitStruct->LSEState) != RCC_LSE_OFF)
 8000ce6:	687b      	ldr	r3, [r7, #4]
 8000ce8:	689b      	ldr	r3, [r3, #8]
 8000cea:	2b00      	cmp	r3, #0
 8000cec:	d015      	beq.n	8000d1a <HAL_RCC_OscConfig+0x3aa>
    {
      /* Get Start Tick*/
      tickstart = HAL_GetTick();
 8000cee:	f7ff fd4d 	bl	800078c <HAL_GetTick>
 8000cf2:	6138      	str	r0, [r7, #16]

      /* Wait till LSE is ready */
      while (__HAL_RCC_GET_FLAG(RCC_FLAG_LSERDY) == RESET)
 8000cf4:	e00a      	b.n	8000d0c <HAL_RCC_OscConfig+0x39c>
      {
        if ((HAL_GetTick() - tickstart) > RCC_LSE_TIMEOUT_VALUE)
 8000cf6:	f7ff fd49 	bl	800078c <HAL_GetTick>
 8000cfa:	4602      	mov	r2, r0
 8000cfc:	693b      	ldr	r3, [r7, #16]
 8000cfe:	1ad3      	subs	r3, r2, r3
 8000d00:	f241 3288 	movw	r2, #5000	; 0x1388
 8000d04:	4293      	cmp	r3, r2
 8000d06:	d901      	bls.n	8000d0c <HAL_RCC_OscConfig+0x39c>
        {
          return HAL_TIMEOUT;
 8000d08:	2303      	movs	r3, #3
 8000d0a:	e0ce      	b.n	8000eaa <HAL_RCC_OscConfig+0x53a>
      while (__HAL_RCC_GET_FLAG(RCC_FLAG_LSERDY) == RESET)
 8000d0c:	4b4b      	ldr	r3, [pc, #300]	; (8000e3c <HAL_RCC_OscConfig+0x4cc>)
 8000d0e:	6f1b      	ldr	r3, [r3, #112]	; 0x70
 8000d10:	f003 0302 	and.w	r3, r3, #2
 8000d14:	2b00      	cmp	r3, #0
 8000d16:	d0ee      	beq.n	8000cf6 <HAL_RCC_OscConfig+0x386>
 8000d18:	e014      	b.n	8000d44 <HAL_RCC_OscConfig+0x3d4>
      }
    }
    else
    {
      /* Get Start Tick*/
      tickstart = HAL_GetTick();
 8000d1a:	f7ff fd37 	bl	800078c <HAL_GetTick>
 8000d1e:	6138      	str	r0, [r7, #16]

      /* Wait till LSE is ready */
      while (__HAL_RCC_GET_FLAG(RCC_FLAG_LSERDY) != RESET)
 8000d20:	e00a      	b.n	8000d38 <HAL_RCC_OscConfig+0x3c8>
      {
        if ((HAL_GetTick() - tickstart) > RCC_LSE_TIMEOUT_VALUE)
 8000d22:	f7ff fd33 	bl	800078c <HAL_GetTick>
 8000d26:	4602      	mov	r2, r0
 8000d28:	693b      	ldr	r3, [r7, #16]
 8000d2a:	1ad3      	subs	r3, r2, r3
 8000d2c:	f241 3288 	movw	r2, #5000	; 0x1388
 8000d30:	4293      	cmp	r3, r2
 8000d32:	d901      	bls.n	8000d38 <HAL_RCC_OscConfig+0x3c8>
        {
          return HAL_TIMEOUT;
 8000d34:	2303      	movs	r3, #3
 8000d36:	e0b8      	b.n	8000eaa <HAL_RCC_OscConfig+0x53a>
      while (__HAL_RCC_GET_FLAG(RCC_FLAG_LSERDY) != RESET)
 8000d38:	4b40      	ldr	r3, [pc, #256]	; (8000e3c <HAL_RCC_OscConfig+0x4cc>)
 8000d3a:	6f1b      	ldr	r3, [r3, #112]	; 0x70
 8000d3c:	f003 0302 	and.w	r3, r3, #2
 8000d40:	2b00      	cmp	r3, #0
 8000d42:	d1ee      	bne.n	8000d22 <HAL_RCC_OscConfig+0x3b2>
        }
      }
    }

    /* Restore clock configuration if changed */
    if (pwrclkchanged == SET)
 8000d44:	7dfb      	ldrb	r3, [r7, #23]
 8000d46:	2b01      	cmp	r3, #1
 8000d48:	d105      	bne.n	8000d56 <HAL_RCC_OscConfig+0x3e6>
    {
      __HAL_RCC_PWR_CLK_DISABLE();
 8000d4a:	4b3c      	ldr	r3, [pc, #240]	; (8000e3c <HAL_RCC_OscConfig+0x4cc>)
 8000d4c:	6c1b      	ldr	r3, [r3, #64]	; 0x40
 8000d4e:	4a3b      	ldr	r2, [pc, #236]	; (8000e3c <HAL_RCC_OscConfig+0x4cc>)
 8000d50:	f023 5380 	bic.w	r3, r3, #268435456	; 0x10000000
 8000d54:	6413      	str	r3, [r2, #64]	; 0x40
    }
  }
  /*-------------------------------- PLL Configuration -----------------------*/
  /* Check the parameters */
  assert_param(IS_RCC_PLL(RCC_OscInitStruct->PLL.PLLState));
  if ((RCC_OscInitStruct->PLL.PLLState) != RCC_PLL_NONE)
 8000d56:	687b      	ldr	r3, [r7, #4]
 8000d58:	699b      	ldr	r3, [r3, #24]
 8000d5a:	2b00      	cmp	r3, #0
 8000d5c:	f000 80a4 	beq.w	8000ea8 <HAL_RCC_OscConfig+0x538>
  {
    /* Check if the PLL is used as system clock or not */
    if (__HAL_RCC_GET_SYSCLK_SOURCE() != RCC_SYSCLKSOURCE_STATUS_PLLCLK)
 8000d60:	4b36      	ldr	r3, [pc, #216]	; (8000e3c <HAL_RCC_OscConfig+0x4cc>)
 8000d62:	689b      	ldr	r3, [r3, #8]
 8000d64:	f003 030c 	and.w	r3, r3, #12
 8000d68:	2b08      	cmp	r3, #8
 8000d6a:	d06b      	beq.n	8000e44 <HAL_RCC_OscConfig+0x4d4>
    {
      if ((RCC_OscInitStruct->PLL.PLLState) == RCC_PLL_ON)
 8000d6c:	687b      	ldr	r3, [r7, #4]
 8000d6e:	699b      	ldr	r3, [r3, #24]
 8000d70:	2b02      	cmp	r3, #2
 8000d72:	d149      	bne.n	8000e08 <HAL_RCC_OscConfig+0x498>
#if defined (RCC_PLLCFGR_PLLR)
        assert_param(IS_RCC_PLLR_VALUE(RCC_OscInitStruct->PLL.PLLR));
#endif

        /* Disable the main PLL. */
        __HAL_RCC_PLL_DISABLE();
 8000d74:	4b31      	ldr	r3, [pc, #196]	; (8000e3c <HAL_RCC_OscConfig+0x4cc>)
 8000d76:	681b      	ldr	r3, [r3, #0]
 8000d78:	4a30      	ldr	r2, [pc, #192]	; (8000e3c <HAL_RCC_OscConfig+0x4cc>)
 8000d7a:	f023 7380 	bic.w	r3, r3, #16777216	; 0x1000000
 8000d7e:	6013      	str	r3, [r2, #0]

        /* Get Start Tick*/
        tickstart = HAL_GetTick();
 8000d80:	f7ff fd04 	bl	800078c <HAL_GetTick>
 8000d84:	6138      	str	r0, [r7, #16]

        /* Wait till PLL is ready */
        while (__HAL_RCC_GET_FLAG(RCC_FLAG_PLLRDY) != RESET)
 8000d86:	e008      	b.n	8000d9a <HAL_RCC_OscConfig+0x42a>
        {
          if ((HAL_GetTick() - tickstart) > PLL_TIMEOUT_VALUE)
 8000d88:	f7ff fd00 	bl	800078c <HAL_GetTick>
 8000d8c:	4602      	mov	r2, r0
 8000d8e:	693b      	ldr	r3, [r7, #16]
 8000d90:	1ad3      	subs	r3, r2, r3
 8000d92:	2b02      	cmp	r3, #2
 8000d94:	d901      	bls.n	8000d9a <HAL_RCC_OscConfig+0x42a>
          {
            return HAL_TIMEOUT;
 8000d96:	2303      	movs	r3, #3
 8000d98:	e087      	b.n	8000eaa <HAL_RCC_OscConfig+0x53a>
        while (__HAL_RCC_GET_FLAG(RCC_FLAG_PLLRDY) != RESET)
 8000d9a:	4b28      	ldr	r3, [pc, #160]	; (8000e3c <HAL_RCC_OscConfig+0x4cc>)
 8000d9c:	681b      	ldr	r3, [r3, #0]
 8000d9e:	f003 7300 	and.w	r3, r3, #33554432	; 0x2000000
 8000da2:	2b00      	cmp	r3, #0
 8000da4:	d1f0      	bne.n	8000d88 <HAL_RCC_OscConfig+0x418>
                             RCC_OscInitStruct->PLL.PLLN,
                             RCC_OscInitStruct->PLL.PLLP,
                             RCC_OscInitStruct->PLL.PLLQ,
                             RCC_OscInitStruct->PLL.PLLR);
#else
        __HAL_RCC_PLL_CONFIG(RCC_OscInitStruct->PLL.PLLSource,
 8000da6:	687b      	ldr	r3, [r7, #4]
 8000da8:	69da      	ldr	r2, [r3, #28]
 8000daa:	687b      	ldr	r3, [r7, #4]
 8000dac:	6a1b      	ldr	r3, [r3, #32]
 8000dae:	431a      	orrs	r2, r3
 8000db0:	687b      	ldr	r3, [r7, #4]
 8000db2:	6a5b      	ldr	r3, [r3, #36]	; 0x24
 8000db4:	019b      	lsls	r3, r3, #6
 8000db6:	431a      	orrs	r2, r3
 8000db8:	687b      	ldr	r3, [r7, #4]
 8000dba:	6a9b      	ldr	r3, [r3, #40]	; 0x28
 8000dbc:	085b      	lsrs	r3, r3, #1
 8000dbe:	3b01      	subs	r3, #1
 8000dc0:	041b      	lsls	r3, r3, #16
 8000dc2:	431a      	orrs	r2, r3
 8000dc4:	687b      	ldr	r3, [r7, #4]
 8000dc6:	6adb      	ldr	r3, [r3, #44]	; 0x2c
 8000dc8:	061b      	lsls	r3, r3, #24
 8000dca:	4313      	orrs	r3, r2
 8000dcc:	4a1b      	ldr	r2, [pc, #108]	; (8000e3c <HAL_RCC_OscConfig+0x4cc>)
 8000dce:	f043 5300 	orr.w	r3, r3, #536870912	; 0x20000000
 8000dd2:	6053      	str	r3, [r2, #4]
                             RCC_OscInitStruct->PLL.PLLP,
                             RCC_OscInitStruct->PLL.PLLQ);
#endif

        /* Enable the main PLL. */
        __HAL_RCC_PLL_ENABLE();
 8000dd4:	4b19      	ldr	r3, [pc, #100]	; (8000e3c <HAL_RCC_OscConfig+0x4cc>)
 8000dd6:	681b      	ldr	r3, [r3, #0]
 8000dd8:	4a18      	ldr	r2, [pc, #96]	; (8000e3c <HAL_RCC_OscConfig+0x4cc>)
 8000dda:	f043 7380 	orr.w	r3, r3, #16777216	; 0x1000000
 8000dde:	6013      	str	r3, [r2, #0]

        /* Get Start Tick*/
        tickstart = HAL_GetTick();
 8000de0:	f7ff fcd4 	bl	800078c <HAL_GetTick>
 8000de4:	6138      	str	r0, [r7, #16]

        /* Wait till PLL is ready */
        while (__HAL_RCC_GET_FLAG(RCC_FLAG_PLLRDY) == RESET)
 8000de6:	e008      	b.n	8000dfa <HAL_RCC_OscConfig+0x48a>
        {
          if ((HAL_GetTick() - tickstart) > PLL_TIMEOUT_VALUE)
 8000de8:	f7ff fcd0 	bl	800078c <HAL_GetTick>
 8000dec:	4602      	mov	r2, r0
 8000dee:	693b      	ldr	r3, [r7, #16]
 8000df0:	1ad3      	subs	r3, r2, r3
 8000df2:	2b02      	cmp	r3, #2
 8000df4:	d901      	bls.n	8000dfa <HAL_RCC_OscConfig+0x48a>
          {
            return HAL_TIMEOUT;
 8000df6:	2303      	movs	r3, #3
 8000df8:	e057      	b.n	8000eaa <HAL_RCC_OscConfig+0x53a>
        while (__HAL_RCC_GET_FLAG(RCC_FLAG_PLLRDY) == RESET)
 8000dfa:	4b10      	ldr	r3, [pc, #64]	; (8000e3c <HAL_RCC_OscConfig+0x4cc>)
 8000dfc:	681b      	ldr	r3, [r3, #0]
 8000dfe:	f003 7300 	and.w	r3, r3, #33554432	; 0x2000000
 8000e02:	2b00      	cmp	r3, #0
 8000e04:	d0f0      	beq.n	8000de8 <HAL_RCC_OscConfig+0x478>
 8000e06:	e04f      	b.n	8000ea8 <HAL_RCC_OscConfig+0x538>
        }
      }
      else
      {
        /* Disable the main PLL. */
        __HAL_RCC_PLL_DISABLE();
 8000e08:	4b0c      	ldr	r3, [pc, #48]	; (8000e3c <HAL_RCC_OscConfig+0x4cc>)
 8000e0a:	681b      	ldr	r3, [r3, #0]
 8000e0c:	4a0b      	ldr	r2, [pc, #44]	; (8000e3c <HAL_RCC_OscConfig+0x4cc>)
 8000e0e:	f023 7380 	bic.w	r3, r3, #16777216	; 0x1000000
 8000e12:	6013      	str	r3, [r2, #0]

        /* Get Start Tick*/
        tickstart = HAL_GetTick();
 8000e14:	f7ff fcba 	bl	800078c <HAL_GetTick>
 8000e18:	6138      	str	r0, [r7, #16]

        /* Wait till PLL is ready */
        while (__HAL_RCC_GET_FLAG(RCC_FLAG_PLLRDY) != RESET)
 8000e1a:	e008      	b.n	8000e2e <HAL_RCC_OscConfig+0x4be>
        {
          if ((HAL_GetTick() - tickstart) > PLL_TIMEOUT_VALUE)
 8000e1c:	f7ff fcb6 	bl	800078c <HAL_GetTick>
 8000e20:	4602      	mov	r2, r0
 8000e22:	693b      	ldr	r3, [r7, #16]
 8000e24:	1ad3      	subs	r3, r2, r3
 8000e26:	2b02      	cmp	r3, #2
 8000e28:	d901      	bls.n	8000e2e <HAL_RCC_OscConfig+0x4be>
          {
            return HAL_TIMEOUT;
 8000e2a:	2303      	movs	r3, #3
 8000e2c:	e03d      	b.n	8000eaa <HAL_RCC_OscConfig+0x53a>
        while (__HAL_RCC_GET_FLAG(RCC_FLAG_PLLRDY) != RESET)
 8000e2e:	4b03      	ldr	r3, [pc, #12]	; (8000e3c <HAL_RCC_OscConfig+0x4cc>)
 8000e30:	681b      	ldr	r3, [r3, #0]
 8000e32:	f003 7300 	and.w	r3, r3, #33554432	; 0x2000000
 8000e36:	2b00      	cmp	r3, #0
 8000e38:	d1f0      	bne.n	8000e1c <HAL_RCC_OscConfig+0x4ac>
 8000e3a:	e035      	b.n	8000ea8 <HAL_RCC_OscConfig+0x538>
 8000e3c:	40023800 	.word	0x40023800
 8000e40:	40007000 	.word	0x40007000
      }
    }
    else
    {
      /* Do not return HAL_ERROR if request repeats the current configuration */
      pll_config = RCC->PLLCFGR;
 8000e44:	4b1b      	ldr	r3, [pc, #108]	; (8000eb4 <HAL_RCC_OscConfig+0x544>)
 8000e46:	685b      	ldr	r3, [r3, #4]
 8000e48:	60fb      	str	r3, [r7, #12]
          (READ_BIT(pll_config, RCC_PLLCFGR_PLLN) != (RCC_OscInitStruct->PLL.PLLN << RCC_PLLCFGR_PLLN_Pos)) ||
          (READ_BIT(pll_config, RCC_PLLCFGR_PLLP) != ((((RCC_OscInitStruct->PLL.PLLP) >> 1U) - 1U) << RCC_PLLCFGR_PLLP_Pos)) ||
          (READ_BIT(pll_config, RCC_PLLCFGR_PLLQ) != (RCC_OscInitStruct->PLL.PLLQ << RCC_PLLCFGR_PLLQ_Pos)) ||
          (READ_BIT(pll_config, RCC_PLLCFGR_PLLR) != (RCC_OscInitStruct->PLL.PLLR << RCC_PLLCFGR_PLLR_Pos)))
#else
      if (((RCC_OscInitStruct->PLL.PLLState) == RCC_PLL_OFF) ||
 8000e4a:	687b      	ldr	r3, [r7, #4]
 8000e4c:	699b      	ldr	r3, [r3, #24]
 8000e4e:	2b01      	cmp	r3, #1
 8000e50:	d028      	beq.n	8000ea4 <HAL_RCC_OscConfig+0x534>
          (READ_BIT(pll_config, RCC_PLLCFGR_PLLSRC) != RCC_OscInitStruct->PLL.PLLSource) ||
 8000e52:	68fb      	ldr	r3, [r7, #12]
 8000e54:	f403 0280 	and.w	r2, r3, #4194304	; 0x400000
 8000e58:	687b      	ldr	r3, [r7, #4]
 8000e5a:	69db      	ldr	r3, [r3, #28]
      if (((RCC_OscInitStruct->PLL.PLLState) == RCC_PLL_OFF) ||
 8000e5c:	429a      	cmp	r2, r3
 8000e5e:	d121      	bne.n	8000ea4 <HAL_RCC_OscConfig+0x534>
          (READ_BIT(pll_config, RCC_PLLCFGR_PLLM) != RCC_OscInitStruct->PLL.PLLM) ||
 8000e60:	68fb      	ldr	r3, [r7, #12]
 8000e62:	f003 023f 	and.w	r2, r3, #63	; 0x3f
 8000e66:	687b      	ldr	r3, [r7, #4]
 8000e68:	6a1b      	ldr	r3, [r3, #32]
          (READ_BIT(pll_config, RCC_PLLCFGR_PLLSRC) != RCC_OscInitStruct->PLL.PLLSource) ||
 8000e6a:	429a      	cmp	r2, r3
 8000e6c:	d11a      	bne.n	8000ea4 <HAL_RCC_OscConfig+0x534>
          (READ_BIT(pll_config, RCC_PLLCFGR_PLLN) != (RCC_OscInitStruct->PLL.PLLN << RCC_PLLCFGR_PLLN_Pos)) ||
 8000e6e:	68fa      	ldr	r2, [r7, #12]
 8000e70:	f647 73c0 	movw	r3, #32704	; 0x7fc0
 8000e74:	4013      	ands	r3, r2
 8000e76:	687a      	ldr	r2, [r7, #4]
 8000e78:	6a52      	ldr	r2, [r2, #36]	; 0x24
 8000e7a:	0192      	lsls	r2, r2, #6
          (READ_BIT(pll_config, RCC_PLLCFGR_PLLM) != RCC_OscInitStruct->PLL.PLLM) ||
 8000e7c:	4293      	cmp	r3, r2
 8000e7e:	d111      	bne.n	8000ea4 <HAL_RCC_OscConfig+0x534>
          (READ_BIT(pll_config, RCC_PLLCFGR_PLLP) != ((((RCC_OscInitStruct->PLL.PLLP) >> 1U) - 1U) << RCC_PLLCFGR_PLLP_Pos)) ||
 8000e80:	68fb      	ldr	r3, [r7, #12]
 8000e82:	f403 3240 	and.w	r2, r3, #196608	; 0x30000
 8000e86:	687b      	ldr	r3, [r7, #4]
 8000e88:	6a9b      	ldr	r3, [r3, #40]	; 0x28
 8000e8a:	085b      	lsrs	r3, r3, #1
 8000e8c:	3b01      	subs	r3, #1
 8000e8e:	041b      	lsls	r3, r3, #16
          (READ_BIT(pll_config, RCC_PLLCFGR_PLLN) != (RCC_OscInitStruct->PLL.PLLN << RCC_PLLCFGR_PLLN_Pos)) ||
 8000e90:	429a      	cmp	r2, r3
 8000e92:	d107      	bne.n	8000ea4 <HAL_RCC_OscConfig+0x534>
          (READ_BIT(pll_config, RCC_PLLCFGR_PLLQ) != (RCC_OscInitStruct->PLL.PLLQ << RCC_PLLCFGR_PLLQ_Pos)))
 8000e94:	68fb      	ldr	r3, [r7, #12]
 8000e96:	f003 6270 	and.w	r2, r3, #251658240	; 0xf000000
 8000e9a:	687b      	ldr	r3, [r7, #4]
 8000e9c:	6adb      	ldr	r3, [r3, #44]	; 0x2c
 8000e9e:	061b      	lsls	r3, r3, #24
          (READ_BIT(pll_config, RCC_PLLCFGR_PLLP) != ((((RCC_OscInitStruct->PLL.PLLP) >> 1U) - 1U) << RCC_PLLCFGR_PLLP_Pos)) ||
 8000ea0:	429a      	cmp	r2, r3
 8000ea2:	d001      	beq.n	8000ea8 <HAL_RCC_OscConfig+0x538>
#endif
      {
        return HAL_ERROR;
 8000ea4:	2301      	movs	r3, #1
 8000ea6:	e000      	b.n	8000eaa <HAL_RCC_OscConfig+0x53a>
      }
    }
  }
  return HAL_OK;
 8000ea8:	2300      	movs	r3, #0
}
 8000eaa:	4618      	mov	r0, r3
 8000eac:	3718      	adds	r7, #24
 8000eae:	46bd      	mov	sp, r7
 8000eb0:	bd80      	pop	{r7, pc}
 8000eb2:	bf00      	nop
 8000eb4:	40023800 	.word	0x40023800

08000eb8 <HAL_RCC_ClockConfig>:
  *         HPRE[3:0] bits to ensure that HCLK not exceed the maximum allowed frequency
  *         (for more details refer to section above "Initialization/de-initialization functions")
  * @retval None
  */
HAL_StatusTypeDef HAL_RCC_ClockConfig(RCC_ClkInitTypeDef  *RCC_ClkInitStruct, uint32_t FLatency)
{
 8000eb8:	b580      	push	{r7, lr}
 8000eba:	b084      	sub	sp, #16
 8000ebc:	af00      	add	r7, sp, #0
 8000ebe:	6078      	str	r0, [r7, #4]
 8000ec0:	6039      	str	r1, [r7, #0]
  uint32_t tickstart = 0;
 8000ec2:	2300      	movs	r3, #0
 8000ec4:	60fb      	str	r3, [r7, #12]

  /* Check Null pointer */
  if (RCC_ClkInitStruct == NULL)
 8000ec6:	687b      	ldr	r3, [r7, #4]
 8000ec8:	2b00      	cmp	r3, #0
 8000eca:	d101      	bne.n	8000ed0 <HAL_RCC_ClockConfig+0x18>
  {
    return HAL_ERROR;
 8000ecc:	2301      	movs	r3, #1
 8000ece:	e0d0      	b.n	8001072 <HAL_RCC_ClockConfig+0x1ba>
  /* To correctly read data from FLASH memory, the number of wait states (LATENCY)
     must be correctly programmed according to the frequency of the CPU clock
     (HCLK) and the supply voltage of the device. */

  /* Increasing the CPU frequency */
  if (FLatency > __HAL_FLASH_GET_LATENCY())
 8000ed0:	4b6a      	ldr	r3, [pc, #424]	; (800107c <HAL_RCC_ClockConfig+0x1c4>)
 8000ed2:	681b      	ldr	r3, [r3, #0]
 8000ed4:	f003 030f 	and.w	r3, r3, #15
 8000ed8:	683a      	ldr	r2, [r7, #0]
 8000eda:	429a      	cmp	r2, r3
 8000edc:	d910      	bls.n	8000f00 <HAL_RCC_ClockConfig+0x48>
  {
    /* Program the new number of wait states to the LATENCY bits in the FLASH_ACR register */
    __HAL_FLASH_SET_LATENCY(FLatency);
 8000ede:	4b67      	ldr	r3, [pc, #412]	; (800107c <HAL_RCC_ClockConfig+0x1c4>)
 8000ee0:	681b      	ldr	r3, [r3, #0]
 8000ee2:	f023 020f 	bic.w	r2, r3, #15
 8000ee6:	4965      	ldr	r1, [pc, #404]	; (800107c <HAL_RCC_ClockConfig+0x1c4>)
 8000ee8:	683b      	ldr	r3, [r7, #0]
 8000eea:	4313      	orrs	r3, r2
 8000eec:	600b      	str	r3, [r1, #0]

    /* Check that the new number of wait states is taken into account to access the Flash
    memory by reading the FLASH_ACR register */
    if (__HAL_FLASH_GET_LATENCY() != FLatency)
 8000eee:	4b63      	ldr	r3, [pc, #396]	; (800107c <HAL_RCC_ClockConfig+0x1c4>)
 8000ef0:	681b      	ldr	r3, [r3, #0]
 8000ef2:	f003 030f 	and.w	r3, r3, #15
 8000ef6:	683a      	ldr	r2, [r7, #0]
 8000ef8:	429a      	cmp	r2, r3
 8000efa:	d001      	beq.n	8000f00 <HAL_RCC_ClockConfig+0x48>
    {
      return HAL_ERROR;
 8000efc:	2301      	movs	r3, #1
 8000efe:	e0b8      	b.n	8001072 <HAL_RCC_ClockConfig+0x1ba>
    }
  }

  /*-------------------------- HCLK Configuration --------------------------*/
  if (((RCC_ClkInitStruct->ClockType) & RCC_CLOCKTYPE_HCLK) == RCC_CLOCKTYPE_HCLK)
 8000f00:	687b      	ldr	r3, [r7, #4]
 8000f02:	681b      	ldr	r3, [r3, #0]
 8000f04:	f003 0302 	and.w	r3, r3, #2
 8000f08:	2b00      	cmp	r3, #0
 8000f0a:	d020      	beq.n	8000f4e <HAL_RCC_ClockConfig+0x96>
  {
    /* Set the highest APBx dividers in order to ensure that we do not go through
       a non-spec phase whatever we decrease or increase HCLK. */
    if (((RCC_ClkInitStruct->ClockType) & RCC_CLOCKTYPE_PCLK1) == RCC_CLOCKTYPE_PCLK1)
 8000f0c:	687b      	ldr	r3, [r7, #4]
 8000f0e:	681b      	ldr	r3, [r3, #0]
 8000f10:	f003 0304 	and.w	r3, r3, #4
 8000f14:	2b00      	cmp	r3, #0
 8000f16:	d005      	beq.n	8000f24 <HAL_RCC_ClockConfig+0x6c>
    {
      MODIFY_REG(RCC->CFGR, RCC_CFGR_PPRE1, RCC_HCLK_DIV16);
 8000f18:	4b59      	ldr	r3, [pc, #356]	; (8001080 <HAL_RCC_ClockConfig+0x1c8>)
 8000f1a:	689b      	ldr	r3, [r3, #8]
 8000f1c:	4a58      	ldr	r2, [pc, #352]	; (8001080 <HAL_RCC_ClockConfig+0x1c8>)
 8000f1e:	f443 53e0 	orr.w	r3, r3, #7168	; 0x1c00
 8000f22:	6093      	str	r3, [r2, #8]
    }

    if (((RCC_ClkInitStruct->ClockType) & RCC_CLOCKTYPE_PCLK2) == RCC_CLOCKTYPE_PCLK2)
 8000f24:	687b      	ldr	r3, [r7, #4]
 8000f26:	681b      	ldr	r3, [r3, #0]
 8000f28:	f003 0308 	and.w	r3, r3, #8
 8000f2c:	2b00      	cmp	r3, #0
 8000f2e:	d005      	beq.n	8000f3c <HAL_RCC_ClockConfig+0x84>
    {
      MODIFY_REG(RCC->CFGR, RCC_CFGR_PPRE2, (RCC_HCLK_DIV16 << 3));
 8000f30:	4b53      	ldr	r3, [pc, #332]	; (8001080 <HAL_RCC_ClockConfig+0x1c8>)
 8000f32:	689b      	ldr	r3, [r3, #8]
 8000f34:	4a52      	ldr	r2, [pc, #328]	; (8001080 <HAL_RCC_ClockConfig+0x1c8>)
 8000f36:	f443 4360 	orr.w	r3, r3, #57344	; 0xe000
 8000f3a:	6093      	str	r3, [r2, #8]
    }

    /* Set the new HCLK clock divider */
    assert_param(IS_RCC_HCLK(RCC_ClkInitStruct->AHBCLKDivider));
    MODIFY_REG(RCC->CFGR, RCC_CFGR_HPRE, RCC_ClkInitStruct->AHBCLKDivider);
 8000f3c:	4b50      	ldr	r3, [pc, #320]	; (8001080 <HAL_RCC_ClockConfig+0x1c8>)
 8000f3e:	689b      	ldr	r3, [r3, #8]
 8000f40:	f023 02f0 	bic.w	r2, r3, #240	; 0xf0
 8000f44:	687b      	ldr	r3, [r7, #4]
 8000f46:	689b      	ldr	r3, [r3, #8]
 8000f48:	494d      	ldr	r1, [pc, #308]	; (8001080 <HAL_RCC_ClockConfig+0x1c8>)
 8000f4a:	4313      	orrs	r3, r2
 8000f4c:	608b      	str	r3, [r1, #8]
  }

  /*------------------------- SYSCLK Configuration ---------------------------*/
  if (((RCC_ClkInitStruct->ClockType) & RCC_CLOCKTYPE_SYSCLK) == RCC_CLOCKTYPE_SYSCLK)
 8000f4e:	687b      	ldr	r3, [r7, #4]
 8000f50:	681b      	ldr	r3, [r3, #0]
 8000f52:	f003 0301 	and.w	r3, r3, #1
 8000f56:	2b00      	cmp	r3, #0
 8000f58:	d040      	beq.n	8000fdc <HAL_RCC_ClockConfig+0x124>
  {
    assert_param(IS_RCC_SYSCLKSOURCE(RCC_ClkInitStruct->SYSCLKSource));

    /* HSE is selected as System Clock Source */
    if (RCC_ClkInitStruct->SYSCLKSource == RCC_SYSCLKSOURCE_HSE)
 8000f5a:	687b      	ldr	r3, [r7, #4]
 8000f5c:	685b      	ldr	r3, [r3, #4]
 8000f5e:	2b01      	cmp	r3, #1
 8000f60:	d107      	bne.n	8000f72 <HAL_RCC_ClockConfig+0xba>
    {
      /* Check the HSE ready flag */
      if (__HAL_RCC_GET_FLAG(RCC_FLAG_HSERDY) == RESET)
 8000f62:	4b47      	ldr	r3, [pc, #284]	; (8001080 <HAL_RCC_ClockConfig+0x1c8>)
 8000f64:	681b      	ldr	r3, [r3, #0]
 8000f66:	f403 3300 	and.w	r3, r3, #131072	; 0x20000
 8000f6a:	2b00      	cmp	r3, #0
 8000f6c:	d115      	bne.n	8000f9a <HAL_RCC_ClockConfig+0xe2>
      {
        return HAL_ERROR;
 8000f6e:	2301      	movs	r3, #1
 8000f70:	e07f      	b.n	8001072 <HAL_RCC_ClockConfig+0x1ba>
      }
    }
    /* PLL is selected as System Clock Source */
    else if (RCC_ClkInitStruct->SYSCLKSource == RCC_SYSCLKSOURCE_PLLCLK)
 8000f72:	687b      	ldr	r3, [r7, #4]
 8000f74:	685b      	ldr	r3, [r3, #4]
 8000f76:	2b02      	cmp	r3, #2
 8000f78:	d107      	bne.n	8000f8a <HAL_RCC_ClockConfig+0xd2>
    {
      /* Check the PLL ready flag */
      if (__HAL_RCC_GET_FLAG(RCC_FLAG_PLLRDY) == RESET)
 8000f7a:	4b41      	ldr	r3, [pc, #260]	; (8001080 <HAL_RCC_ClockConfig+0x1c8>)
 8000f7c:	681b      	ldr	r3, [r3, #0]
 8000f7e:	f003 7300 	and.w	r3, r3, #33554432	; 0x2000000
 8000f82:	2b00      	cmp	r3, #0
 8000f84:	d109      	bne.n	8000f9a <HAL_RCC_ClockConfig+0xe2>
      {
        return HAL_ERROR;
 8000f86:	2301      	movs	r3, #1
 8000f88:	e073      	b.n	8001072 <HAL_RCC_ClockConfig+0x1ba>
    }
    /* HSI is selected as System Clock Source */
    else
    {
      /* Check the HSI ready flag */
      if (__HAL_RCC_GET_FLAG(RCC_FLAG_HSIRDY) == RESET)
 8000f8a:	4b3d      	ldr	r3, [pc, #244]	; (8001080 <HAL_RCC_ClockConfig+0x1c8>)
 8000f8c:	681b      	ldr	r3, [r3, #0]
 8000f8e:	f003 0302 	and.w	r3, r3, #2
 8000f92:	2b00      	cmp	r3, #0
 8000f94:	d101      	bne.n	8000f9a <HAL_RCC_ClockConfig+0xe2>
      {
        return HAL_ERROR;
 8000f96:	2301      	movs	r3, #1
 8000f98:	e06b      	b.n	8001072 <HAL_RCC_ClockConfig+0x1ba>
      }
    }

    __HAL_RCC_SYSCLK_CONFIG(RCC_ClkInitStruct->SYSCLKSource);
 8000f9a:	4b39      	ldr	r3, [pc, #228]	; (8001080 <HAL_RCC_ClockConfig+0x1c8>)
 8000f9c:	689b      	ldr	r3, [r3, #8]
 8000f9e:	f023 0203 	bic.w	r2, r3, #3
 8000fa2:	687b      	ldr	r3, [r7, #4]
 8000fa4:	685b      	ldr	r3, [r3, #4]
 8000fa6:	4936      	ldr	r1, [pc, #216]	; (8001080 <HAL_RCC_ClockConfig+0x1c8>)
 8000fa8:	4313      	orrs	r3, r2
 8000faa:	608b      	str	r3, [r1, #8]

    /* Get Start Tick*/
    tickstart = HAL_GetTick();
 8000fac:	f7ff fbee 	bl	800078c <HAL_GetTick>
 8000fb0:	60f8      	str	r0, [r7, #12]

    while (__HAL_RCC_GET_SYSCLK_SOURCE() != (RCC_ClkInitStruct->SYSCLKSource << RCC_CFGR_SWS_Pos))
 8000fb2:	e00a      	b.n	8000fca <HAL_RCC_ClockConfig+0x112>
    {
      if ((HAL_GetTick() - tickstart) > CLOCKSWITCH_TIMEOUT_VALUE)
 8000fb4:	f7ff fbea 	bl	800078c <HAL_GetTick>
 8000fb8:	4602      	mov	r2, r0
 8000fba:	68fb      	ldr	r3, [r7, #12]
 8000fbc:	1ad3      	subs	r3, r2, r3
 8000fbe:	f241 3288 	movw	r2, #5000	; 0x1388
 8000fc2:	4293      	cmp	r3, r2
 8000fc4:	d901      	bls.n	8000fca <HAL_RCC_ClockConfig+0x112>
      {
        return HAL_TIMEOUT;
 8000fc6:	2303      	movs	r3, #3
 8000fc8:	e053      	b.n	8001072 <HAL_RCC_ClockConfig+0x1ba>
    while (__HAL_RCC_GET_SYSCLK_SOURCE() != (RCC_ClkInitStruct->SYSCLKSource << RCC_CFGR_SWS_Pos))
 8000fca:	4b2d      	ldr	r3, [pc, #180]	; (8001080 <HAL_RCC_ClockConfig+0x1c8>)
 8000fcc:	689b      	ldr	r3, [r3, #8]
 8000fce:	f003 020c 	and.w	r2, r3, #12
 8000fd2:	687b      	ldr	r3, [r7, #4]
 8000fd4:	685b      	ldr	r3, [r3, #4]
 8000fd6:	009b      	lsls	r3, r3, #2
 8000fd8:	429a      	cmp	r2, r3
 8000fda:	d1eb      	bne.n	8000fb4 <HAL_RCC_ClockConfig+0xfc>
      }
    }
  }

  /* Decreasing the number of wait states because of lower CPU frequency */
  if (FLatency < __HAL_FLASH_GET_LATENCY())
 8000fdc:	4b27      	ldr	r3, [pc, #156]	; (800107c <HAL_RCC_ClockConfig+0x1c4>)
 8000fde:	681b      	ldr	r3, [r3, #0]
 8000fe0:	f003 030f 	and.w	r3, r3, #15
 8000fe4:	683a      	ldr	r2, [r7, #0]
 8000fe6:	429a      	cmp	r2, r3
 8000fe8:	d210      	bcs.n	800100c <HAL_RCC_ClockConfig+0x154>
  {
    /* Program the new number of wait states to the LATENCY bits in the FLASH_ACR register */
    __HAL_FLASH_SET_LATENCY(FLatency);
 8000fea:	4b24      	ldr	r3, [pc, #144]	; (800107c <HAL_RCC_ClockConfig+0x1c4>)
 8000fec:	681b      	ldr	r3, [r3, #0]
 8000fee:	f023 020f 	bic.w	r2, r3, #15
 8000ff2:	4922      	ldr	r1, [pc, #136]	; (800107c <HAL_RCC_ClockConfig+0x1c4>)
 8000ff4:	683b      	ldr	r3, [r7, #0]
 8000ff6:	4313      	orrs	r3, r2
 8000ff8:	600b      	str	r3, [r1, #0]

    /* Check that the new number of wait states is taken into account to access the Flash
    memory by reading the FLASH_ACR register */
    if (__HAL_FLASH_GET_LATENCY() != FLatency)
 8000ffa:	4b20      	ldr	r3, [pc, #128]	; (800107c <HAL_RCC_ClockConfig+0x1c4>)
 8000ffc:	681b      	ldr	r3, [r3, #0]
 8000ffe:	f003 030f 	and.w	r3, r3, #15
 8001002:	683a      	ldr	r2, [r7, #0]
 8001004:	429a      	cmp	r2, r3
 8001006:	d001      	beq.n	800100c <HAL_RCC_ClockConfig+0x154>
    {
      return HAL_ERROR;
 8001008:	2301      	movs	r3, #1
 800100a:	e032      	b.n	8001072 <HAL_RCC_ClockConfig+0x1ba>
    }
  }

  /*-------------------------- PCLK1 Configuration ---------------------------*/
  if (((RCC_ClkInitStruct->ClockType) & RCC_CLOCKTYPE_PCLK1) == RCC_CLOCKTYPE_PCLK1)
 800100c:	687b      	ldr	r3, [r7, #4]
 800100e:	681b      	ldr	r3, [r3, #0]
 8001010:	f003 0304 	and.w	r3, r3, #4
 8001014:	2b00      	cmp	r3, #0
 8001016:	d008      	beq.n	800102a <HAL_RCC_ClockConfig+0x172>
  {
    assert_param(IS_RCC_PCLK(RCC_ClkInitStruct->APB1CLKDivider));
    MODIFY_REG(RCC->CFGR, RCC_CFGR_PPRE1, RCC_ClkInitStruct->APB1CLKDivider);
 8001018:	4b19      	ldr	r3, [pc, #100]	; (8001080 <HAL_RCC_ClockConfig+0x1c8>)
 800101a:	689b      	ldr	r3, [r3, #8]
 800101c:	f423 52e0 	bic.w	r2, r3, #7168	; 0x1c00
 8001020:	687b      	ldr	r3, [r7, #4]
 8001022:	68db      	ldr	r3, [r3, #12]
 8001024:	4916      	ldr	r1, [pc, #88]	; (8001080 <HAL_RCC_ClockConfig+0x1c8>)
 8001026:	4313      	orrs	r3, r2
 8001028:	608b      	str	r3, [r1, #8]
  }

  /*-------------------------- PCLK2 Configuration ---------------------------*/
  if (((RCC_ClkInitStruct->ClockType) & RCC_CLOCKTYPE_PCLK2) == RCC_CLOCKTYPE_PCLK2)
 800102a:	687b      	ldr	r3, [r7, #4]
 800102c:	681b      	ldr	r3, [r3, #0]
 800102e:	f003 0308 	and.w	r3, r3, #8
 8001032:	2b00      	cmp	r3, #0
 8001034:	d009      	beq.n	800104a <HAL_RCC_ClockConfig+0x192>
  {
    assert_param(IS_RCC_PCLK(RCC_ClkInitStruct->APB2CLKDivider));
    MODIFY_REG(RCC->CFGR, RCC_CFGR_PPRE2, ((RCC_ClkInitStruct->APB2CLKDivider) << 3));
 8001036:	4b12      	ldr	r3, [pc, #72]	; (8001080 <HAL_RCC_ClockConfig+0x1c8>)
 8001038:	689b      	ldr	r3, [r3, #8]
 800103a:	f423 4260 	bic.w	r2, r3, #57344	; 0xe000
 800103e:	687b      	ldr	r3, [r7, #4]
 8001040:	691b      	ldr	r3, [r3, #16]
 8001042:	00db      	lsls	r3, r3, #3
 8001044:	490e      	ldr	r1, [pc, #56]	; (8001080 <HAL_RCC_ClockConfig+0x1c8>)
 8001046:	4313      	orrs	r3, r2
 8001048:	608b      	str	r3, [r1, #8]
  }

  /* Update the SystemCoreClock global variable */
  SystemCoreClock = HAL_RCC_GetSysClockFreq() >> AHBPrescTable[(RCC->CFGR & RCC_CFGR_HPRE) >> RCC_CFGR_HPRE_Pos];
 800104a:	f000 f821 	bl	8001090 <HAL_RCC_GetSysClockFreq>
 800104e:	4602      	mov	r2, r0
 8001050:	4b0b      	ldr	r3, [pc, #44]	; (8001080 <HAL_RCC_ClockConfig+0x1c8>)
 8001052:	689b      	ldr	r3, [r3, #8]
 8001054:	091b      	lsrs	r3, r3, #4
 8001056:	f003 030f 	and.w	r3, r3, #15
 800105a:	490a      	ldr	r1, [pc, #40]	; (8001084 <HAL_RCC_ClockConfig+0x1cc>)
 800105c:	5ccb      	ldrb	r3, [r1, r3]
 800105e:	fa22 f303 	lsr.w	r3, r2, r3
 8001062:	4a09      	ldr	r2, [pc, #36]	; (8001088 <HAL_RCC_ClockConfig+0x1d0>)
 8001064:	6013      	str	r3, [r2, #0]

  /* Configure the source of time base considering new system clocks settings*/
  HAL_InitTick(uwTickPrio);
 8001066:	4b09      	ldr	r3, [pc, #36]	; (800108c <HAL_RCC_ClockConfig+0x1d4>)
 8001068:	681b      	ldr	r3, [r3, #0]
 800106a:	4618      	mov	r0, r3
 800106c:	f7ff fb4a 	bl	8000704 <HAL_InitTick>

  return HAL_OK;
 8001070:	2300      	movs	r3, #0
}
 8001072:	4618      	mov	r0, r3
 8001074:	3710      	adds	r7, #16
 8001076:	46bd      	mov	sp, r7
 8001078:	bd80      	pop	{r7, pc}
 800107a:	bf00      	nop
 800107c:	40023c00 	.word	0x40023c00
 8001080:	40023800 	.word	0x40023800
 8001084:	0800126c 	.word	0x0800126c
 8001088:	20000000 	.word	0x20000000
 800108c:	20000004 	.word	0x20000004

08001090 <HAL_RCC_GetSysClockFreq>:
  *
  *
  * @retval SYSCLK frequency
  */
uint32_t HAL_RCC_GetSysClockFreq(void)
{
 8001090:	b5b0      	push	{r4, r5, r7, lr}
 8001092:	b084      	sub	sp, #16
 8001094:	af00      	add	r7, sp, #0
  uint32_t pllm = 0, pllvco = 0, pllp = 0;
 8001096:	2100      	movs	r1, #0
 8001098:	6079      	str	r1, [r7, #4]
 800109a:	2100      	movs	r1, #0
 800109c:	60f9      	str	r1, [r7, #12]
 800109e:	2100      	movs	r1, #0
 80010a0:	6039      	str	r1, [r7, #0]
  uint32_t sysclockfreq = 0;
 80010a2:	2100      	movs	r1, #0
 80010a4:	60b9      	str	r1, [r7, #8]

  /* Get SYSCLK source -------------------------------------------------------*/
  switch (RCC->CFGR & RCC_CFGR_SWS)
 80010a6:	4952      	ldr	r1, [pc, #328]	; (80011f0 <HAL_RCC_GetSysClockFreq+0x160>)
 80010a8:	6889      	ldr	r1, [r1, #8]
 80010aa:	f001 010c 	and.w	r1, r1, #12
 80010ae:	2908      	cmp	r1, #8
 80010b0:	d00d      	beq.n	80010ce <HAL_RCC_GetSysClockFreq+0x3e>
 80010b2:	2908      	cmp	r1, #8
 80010b4:	f200 8094 	bhi.w	80011e0 <HAL_RCC_GetSysClockFreq+0x150>
 80010b8:	2900      	cmp	r1, #0
 80010ba:	d002      	beq.n	80010c2 <HAL_RCC_GetSysClockFreq+0x32>
 80010bc:	2904      	cmp	r1, #4
 80010be:	d003      	beq.n	80010c8 <HAL_RCC_GetSysClockFreq+0x38>
 80010c0:	e08e      	b.n	80011e0 <HAL_RCC_GetSysClockFreq+0x150>
  {
    case RCC_SYSCLKSOURCE_STATUS_HSI:  /* HSI used as system clock source */
    {
      sysclockfreq = HSI_VALUE;
 80010c2:	4b4c      	ldr	r3, [pc, #304]	; (80011f4 <HAL_RCC_GetSysClockFreq+0x164>)
 80010c4:	60bb      	str	r3, [r7, #8]
      break;
 80010c6:	e08e      	b.n	80011e6 <HAL_RCC_GetSysClockFreq+0x156>
    }
    case RCC_SYSCLKSOURCE_STATUS_HSE:  /* HSE used as system clock  source */
    {
      sysclockfreq = HSE_VALUE;
 80010c8:	4b4b      	ldr	r3, [pc, #300]	; (80011f8 <HAL_RCC_GetSysClockFreq+0x168>)
 80010ca:	60bb      	str	r3, [r7, #8]
      break;
 80010cc:	e08b      	b.n	80011e6 <HAL_RCC_GetSysClockFreq+0x156>
    }
    case RCC_SYSCLKSOURCE_STATUS_PLLCLK:  /* PLL used as system clock  source */
    {
      /* PLL_VCO = (HSE_VALUE or HSI_VALUE / PLLM) * PLLN
      SYSCLK = PLL_VCO / PLLP */
      pllm = RCC->PLLCFGR & RCC_PLLCFGR_PLLM;
 80010ce:	4948      	ldr	r1, [pc, #288]	; (80011f0 <HAL_RCC_GetSysClockFreq+0x160>)
 80010d0:	6849      	ldr	r1, [r1, #4]
 80010d2:	f001 013f 	and.w	r1, r1, #63	; 0x3f
 80010d6:	6079      	str	r1, [r7, #4]
      if (__HAL_RCC_GET_PLL_OSCSOURCE() != RCC_PLLCFGR_PLLSRC_HSI)
 80010d8:	4945      	ldr	r1, [pc, #276]	; (80011f0 <HAL_RCC_GetSysClockFreq+0x160>)
 80010da:	6849      	ldr	r1, [r1, #4]
 80010dc:	f401 0180 	and.w	r1, r1, #4194304	; 0x400000
 80010e0:	2900      	cmp	r1, #0
 80010e2:	d024      	beq.n	800112e <HAL_RCC_GetSysClockFreq+0x9e>
      {
        /* HSE used as PLL clock source */
        pllvco = (uint32_t)((((uint64_t) HSE_VALUE * ((uint64_t)((RCC->PLLCFGR & RCC_PLLCFGR_PLLN) >> RCC_PLLCFGR_PLLN_Pos)))) / (uint64_t)pllm);
 80010e4:	4942      	ldr	r1, [pc, #264]	; (80011f0 <HAL_RCC_GetSysClockFreq+0x160>)
 80010e6:	6849      	ldr	r1, [r1, #4]
 80010e8:	0989      	lsrs	r1, r1, #6
 80010ea:	4608      	mov	r0, r1
 80010ec:	f04f 0100 	mov.w	r1, #0
 80010f0:	f240 14ff 	movw	r4, #511	; 0x1ff
 80010f4:	f04f 0500 	mov.w	r5, #0
 80010f8:	ea00 0204 	and.w	r2, r0, r4
 80010fc:	ea01 0305 	and.w	r3, r1, r5
 8001100:	493d      	ldr	r1, [pc, #244]	; (80011f8 <HAL_RCC_GetSysClockFreq+0x168>)
 8001102:	fb01 f003 	mul.w	r0, r1, r3
 8001106:	2100      	movs	r1, #0
 8001108:	fb01 f102 	mul.w	r1, r1, r2
 800110c:	1844      	adds	r4, r0, r1
 800110e:	493a      	ldr	r1, [pc, #232]	; (80011f8 <HAL_RCC_GetSysClockFreq+0x168>)
 8001110:	fba2 0101 	umull	r0, r1, r2, r1
 8001114:	1863      	adds	r3, r4, r1
 8001116:	4619      	mov	r1, r3
 8001118:	687b      	ldr	r3, [r7, #4]
 800111a:	461a      	mov	r2, r3
 800111c:	f04f 0300 	mov.w	r3, #0
 8001120:	f7ff f872 	bl	8000208 <__aeabi_uldivmod>
 8001124:	4602      	mov	r2, r0
 8001126:	460b      	mov	r3, r1
 8001128:	4613      	mov	r3, r2
 800112a:	60fb      	str	r3, [r7, #12]
 800112c:	e04a      	b.n	80011c4 <HAL_RCC_GetSysClockFreq+0x134>
      }
      else
      {
        /* HSI used as PLL clock source */
        pllvco = (uint32_t)((((uint64_t) HSI_VALUE * ((uint64_t)((RCC->PLLCFGR & RCC_PLLCFGR_PLLN) >> RCC_PLLCFGR_PLLN_Pos)))) / (uint64_t)pllm);
 800112e:	4b30      	ldr	r3, [pc, #192]	; (80011f0 <HAL_RCC_GetSysClockFreq+0x160>)
 8001130:	685b      	ldr	r3, [r3, #4]
 8001132:	099b      	lsrs	r3, r3, #6
 8001134:	461a      	mov	r2, r3
 8001136:	f04f 0300 	mov.w	r3, #0
 800113a:	f240 10ff 	movw	r0, #511	; 0x1ff
 800113e:	f04f 0100 	mov.w	r1, #0
 8001142:	ea02 0400 	and.w	r4, r2, r0
 8001146:	ea03 0501 	and.w	r5, r3, r1
 800114a:	4620      	mov	r0, r4
 800114c:	4629      	mov	r1, r5
 800114e:	f04f 0200 	mov.w	r2, #0
 8001152:	f04f 0300 	mov.w	r3, #0
 8001156:	014b      	lsls	r3, r1, #5
 8001158:	ea43 63d0 	orr.w	r3, r3, r0, lsr #27
 800115c:	0142      	lsls	r2, r0, #5
 800115e:	4610      	mov	r0, r2
 8001160:	4619      	mov	r1, r3
 8001162:	1b00      	subs	r0, r0, r4
 8001164:	eb61 0105 	sbc.w	r1, r1, r5
 8001168:	f04f 0200 	mov.w	r2, #0
 800116c:	f04f 0300 	mov.w	r3, #0
 8001170:	018b      	lsls	r3, r1, #6
 8001172:	ea43 6390 	orr.w	r3, r3, r0, lsr #26
 8001176:	0182      	lsls	r2, r0, #6
 8001178:	1a12      	subs	r2, r2, r0
 800117a:	eb63 0301 	sbc.w	r3, r3, r1
 800117e:	f04f 0000 	mov.w	r0, #0
 8001182:	f04f 0100 	mov.w	r1, #0
 8001186:	00d9      	lsls	r1, r3, #3
 8001188:	ea41 7152 	orr.w	r1, r1, r2, lsr #29
 800118c:	00d0      	lsls	r0, r2, #3
 800118e:	4602      	mov	r2, r0
 8001190:	460b      	mov	r3, r1
 8001192:	1912      	adds	r2, r2, r4
 8001194:	eb45 0303 	adc.w	r3, r5, r3
 8001198:	f04f 0000 	mov.w	r0, #0
 800119c:	f04f 0100 	mov.w	r1, #0
 80011a0:	0299      	lsls	r1, r3, #10
 80011a2:	ea41 5192 	orr.w	r1, r1, r2, lsr #22
 80011a6:	0290      	lsls	r0, r2, #10
 80011a8:	4602      	mov	r2, r0
 80011aa:	460b      	mov	r3, r1
 80011ac:	4610      	mov	r0, r2
 80011ae:	4619      	mov	r1, r3
 80011b0:	687b      	ldr	r3, [r7, #4]
 80011b2:	461a      	mov	r2, r3
 80011b4:	f04f 0300 	mov.w	r3, #0
 80011b8:	f7ff f826 	bl	8000208 <__aeabi_uldivmod>
 80011bc:	4602      	mov	r2, r0
 80011be:	460b      	mov	r3, r1
 80011c0:	4613      	mov	r3, r2
 80011c2:	60fb      	str	r3, [r7, #12]
      }
      pllp = ((((RCC->PLLCFGR & RCC_PLLCFGR_PLLP) >> RCC_PLLCFGR_PLLP_Pos) + 1) * 2);
 80011c4:	4b0a      	ldr	r3, [pc, #40]	; (80011f0 <HAL_RCC_GetSysClockFreq+0x160>)
 80011c6:	685b      	ldr	r3, [r3, #4]
 80011c8:	0c1b      	lsrs	r3, r3, #16
 80011ca:	f003 0303 	and.w	r3, r3, #3
 80011ce:	3301      	adds	r3, #1
 80011d0:	005b      	lsls	r3, r3, #1
 80011d2:	603b      	str	r3, [r7, #0]

      sysclockfreq = pllvco / pllp;
 80011d4:	68fa      	ldr	r2, [r7, #12]
 80011d6:	683b      	ldr	r3, [r7, #0]
 80011d8:	fbb2 f3f3 	udiv	r3, r2, r3
 80011dc:	60bb      	str	r3, [r7, #8]
      break;
 80011de:	e002      	b.n	80011e6 <HAL_RCC_GetSysClockFreq+0x156>
    }
    default:
    {
      sysclockfreq = HSI_VALUE;
 80011e0:	4b04      	ldr	r3, [pc, #16]	; (80011f4 <HAL_RCC_GetSysClockFreq+0x164>)
 80011e2:	60bb      	str	r3, [r7, #8]
      break;
 80011e4:	bf00      	nop
    }
  }
  return sysclockfreq;
 80011e6:	68bb      	ldr	r3, [r7, #8]
}
 80011e8:	4618      	mov	r0, r3
 80011ea:	3710      	adds	r7, #16
 80011ec:	46bd      	mov	sp, r7
 80011ee:	bdb0      	pop	{r4, r5, r7, pc}
 80011f0:	40023800 	.word	0x40023800
 80011f4:	00f42400 	.word	0x00f42400
 80011f8:	017d7840 	.word	0x017d7840

080011fc <__libc_init_array>:
 80011fc:	b570      	push	{r4, r5, r6, lr}
 80011fe:	4d0d      	ldr	r5, [pc, #52]	; (8001234 <__libc_init_array+0x38>)
 8001200:	4c0d      	ldr	r4, [pc, #52]	; (8001238 <__libc_init_array+0x3c>)
 8001202:	1b64      	subs	r4, r4, r5
 8001204:	10a4      	asrs	r4, r4, #2
 8001206:	2600      	movs	r6, #0
 8001208:	42a6      	cmp	r6, r4
 800120a:	d109      	bne.n	8001220 <__libc_init_array+0x24>
 800120c:	4d0b      	ldr	r5, [pc, #44]	; (800123c <__libc_init_array+0x40>)
 800120e:	4c0c      	ldr	r4, [pc, #48]	; (8001240 <__libc_init_array+0x44>)
 8001210:	f000 f820 	bl	8001254 <_init>
 8001214:	1b64      	subs	r4, r4, r5
 8001216:	10a4      	asrs	r4, r4, #2
 8001218:	2600      	movs	r6, #0
 800121a:	42a6      	cmp	r6, r4
 800121c:	d105      	bne.n	800122a <__libc_init_array+0x2e>
 800121e:	bd70      	pop	{r4, r5, r6, pc}
 8001220:	f855 3b04 	ldr.w	r3, [r5], #4
 8001224:	4798      	blx	r3
 8001226:	3601      	adds	r6, #1
 8001228:	e7ee      	b.n	8001208 <__libc_init_array+0xc>
 800122a:	f855 3b04 	ldr.w	r3, [r5], #4
 800122e:	4798      	blx	r3
 8001230:	3601      	adds	r6, #1
 8001232:	e7f2      	b.n	800121a <__libc_init_array+0x1e>
 8001234:	08001284 	.word	0x08001284
 8001238:	08001284 	.word	0x08001284
 800123c:	08001284 	.word	0x08001284
 8001240:	08001288 	.word	0x08001288

08001244 <memset>:
 8001244:	4402      	add	r2, r0
 8001246:	4603      	mov	r3, r0
 8001248:	4293      	cmp	r3, r2
 800124a:	d100      	bne.n	800124e <memset+0xa>
 800124c:	4770      	bx	lr
 800124e:	f803 1b01 	strb.w	r1, [r3], #1
 8001252:	e7f9      	b.n	8001248 <memset+0x4>

08001254 <_init>:
 8001254:	b5f8      	push	{r3, r4, r5, r6, r7, lr}
 8001256:	bf00      	nop
 8001258:	bcf8      	pop	{r3, r4, r5, r6, r7}
 800125a:	bc08      	pop	{r3}
 800125c:	469e      	mov	lr, r3
 800125e:	4770      	bx	lr

08001260 <_fini>:
 8001260:	b5f8      	push	{r3, r4, r5, r6, r7, lr}
 8001262:	bf00      	nop
 8001264:	bcf8      	pop	{r3, r4, r5, r6, r7}
 8001266:	bc08      	pop	{r3}
 8001268:	469e      	mov	lr, r3
 800126a:	4770      	bx	lr
